{
	"Calculator/Calculator.sol": {
		"Calculator": {
			"abi": [
				{
					"anonymous": false,
					"inputs": [
						{
							"indexed": false,
							"internalType": "uint256",
							"name": "number1",
							"type": "uint256"
						},
						{
							"indexed": false,
							"internalType": "uint256",
							"name": "number2",
							"type": "uint256"
						},
						{
							"indexed": false,
							"internalType": "uint256",
							"name": "result",
							"type": "uint256"
						}
					],
					"name": "Addition",
					"type": "event"
				},
				{
					"anonymous": false,
					"inputs": [
						{
							"indexed": false,
							"internalType": "uint256",
							"name": "number1",
							"type": "uint256"
						},
						{
							"indexed": false,
							"internalType": "uint256",
							"name": "number2",
							"type": "uint256"
						},
						{
							"indexed": false,
							"internalType": "uint256",
							"name": "result",
							"type": "uint256"
						}
					],
					"name": "Division",
					"type": "event"
				},
				{
					"anonymous": false,
					"inputs": [
						{
							"indexed": false,
							"internalType": "uint256",
							"name": "number1",
							"type": "uint256"
						},
						{
							"indexed": false,
							"internalType": "uint256",
							"name": "number2",
							"type": "uint256"
						},
						{
							"indexed": false,
							"internalType": "uint256",
							"name": "result",
							"type": "uint256"
						}
					],
					"name": "Multiplier",
					"type": "event"
				},
				{
					"anonymous": false,
					"inputs": [
						{
							"indexed": false,
							"internalType": "int256",
							"name": "number1",
							"type": "int256"
						},
						{
							"indexed": false,
							"internalType": "int256",
							"name": "number2",
							"type": "int256"
						},
						{
							"indexed": false,
							"internalType": "int256",
							"name": "result",
							"type": "int256"
						}
					],
					"name": "Substraction",
					"type": "event"
				},
				{
					"inputs": [
						{
							"internalType": "uint256",
							"name": "num1_",
							"type": "uint256"
						},
						{
							"internalType": "uint256",
							"name": "num2_",
							"type": "uint256"
						}
					],
					"name": "addition",
					"outputs": [
						{
							"internalType": "uint256",
							"name": "result_",
							"type": "uint256"
						}
					],
					"stateMutability": "nonpayable",
					"type": "function"
				},
				{
					"inputs": [
						{
							"internalType": "uint256",
							"name": "num1_",
							"type": "uint256"
						},
						{
							"internalType": "uint256",
							"name": "num2_",
							"type": "uint256"
						}
					],
					"name": "division",
					"outputs": [
						{
							"internalType": "uint256",
							"name": "result_",
							"type": "uint256"
						}
					],
					"stateMutability": "nonpayable",
					"type": "function"
				},
				{
					"inputs": [
						{
							"internalType": "uint256",
							"name": "num1_",
							"type": "uint256"
						},
						{
							"internalType": "uint256",
							"name": "num2_",
							"type": "uint256"
						}
					],
					"name": "multiplier",
					"outputs": [
						{
							"internalType": "uint256",
							"name": "result_",
							"type": "uint256"
						}
					],
					"stateMutability": "nonpayable",
					"type": "function"
				},
				{
					"inputs": [
						{
							"internalType": "int256",
							"name": "num1_",
							"type": "int256"
						},
						{
							"internalType": "int256",
							"name": "num2_",
							"type": "int256"
						}
					],
					"name": "substraction",
					"outputs": [
						{
							"internalType": "int256",
							"name": "result_",
							"type": "int256"
						}
					],
					"stateMutability": "pure",
					"type": "function"
				}
			],
			"devdoc": {
				"kind": "dev",
				"methods": {},
				"version": 1
			},
			"evm": {
				"assembly": "    /* \"Calculator/Calculator.sol\":102:2368  contract Calculator {... */\n  mstore(0x40, 0x80)\n  callvalue\n  dup1\n  iszero\n  tag_1\n  jumpi\n  revert(0x00, 0x00)\ntag_1:\n  pop\n  dataSize(sub_0)\n  dup1\n  dataOffset(sub_0)\n  0x00\n  codecopy\n  0x00\n  return\nstop\n\nsub_0: assembly {\n        /* \"Calculator/Calculator.sol\":102:2368  contract Calculator {... */\n      mstore(0x40, 0x80)\n      callvalue\n      dup1\n      iszero\n      tag_1\n      jumpi\n      revert(0x00, 0x00)\n    tag_1:\n      pop\n      jumpi(tag_2, lt(calldatasize, 0x04))\n      shr(0xe0, calldataload(0x00))\n      dup1\n      0x294bfb19\n      eq\n      tag_3\n      jumpi\n      dup1\n      0x54f363a3\n      eq\n      tag_4\n      jumpi\n      dup1\n      0xe0068052\n      eq\n      tag_5\n      jumpi\n      dup1\n      0xe941b9ac\n      eq\n      tag_6\n      jumpi\n    tag_2:\n      revert(0x00, 0x00)\n        /* \"Calculator/Calculator.sol\":1156:1301  function substraction(int256 num1_, int256 num2_) public pure returns(int256 result_) {... */\n    tag_3:\n      tag_7\n      0x04\n      dup1\n      calldatasize\n      sub\n      dup2\n      add\n      swap1\n      tag_8\n      swap2\n      swap1\n      tag_9\n      jump\t// in\n    tag_8:\n      tag_10\n      jump\t// in\n    tag_7:\n      mload(0x40)\n      tag_11\n      swap2\n      swap1\n      tag_12\n      jump\t// in\n    tag_11:\n      mload(0x40)\n      dup1\n      swap2\n      sub\n      swap1\n      return\n        /* \"Calculator/Calculator.sol\":1015:1150  function addition(uint256 num1_, uint256 num2_) public returns(uint256 result_) {... */\n    tag_4:\n      tag_13\n      0x04\n      dup1\n      calldatasize\n      sub\n      dup2\n      add\n      swap1\n      tag_14\n      swap2\n      swap1\n      tag_15\n      jump\t// in\n    tag_14:\n      tag_16\n      jump\t// in\n    tag_13:\n      mload(0x40)\n      tag_17\n      swap2\n      swap1\n      tag_18\n      jump\t// in\n    tag_17:\n      mload(0x40)\n      dup1\n      swap2\n      sub\n      swap1\n      return\n        /* \"Calculator/Calculator.sol\":1452:1587  function division(uint256 num1_, uint256 num2_) public returns(uint256 result_) {... */\n    tag_5:\n      tag_19\n      0x04\n      dup1\n      calldatasize\n      sub\n      dup2\n      add\n      swap1\n      tag_20\n      swap2\n      swap1\n      tag_15\n      jump\t// in\n    tag_20:\n      tag_21\n      jump\t// in\n    tag_19:\n      mload(0x40)\n      tag_22\n      swap2\n      swap1\n      tag_18\n      jump\t// in\n    tag_22:\n      mload(0x40)\n      dup1\n      swap2\n      sub\n      swap1\n      return\n        /* \"Calculator/Calculator.sol\":1307:1446  function multiplier(uint256 num1_, uint256 num2_) public returns(uint256 result_) {... */\n    tag_6:\n      tag_23\n      0x04\n      dup1\n      calldatasize\n      sub\n      dup2\n      add\n      swap1\n      tag_24\n      swap2\n      swap1\n      tag_15\n      jump\t// in\n    tag_24:\n      tag_25\n      jump\t// in\n    tag_23:\n      mload(0x40)\n      tag_26\n      swap2\n      swap1\n      tag_18\n      jump\t// in\n    tag_26:\n      mload(0x40)\n      dup1\n      swap2\n      sub\n      swap1\n      return\n        /* \"Calculator/Calculator.sol\":1156:1301  function substraction(int256 num1_, int256 num2_) public pure returns(int256 result_) {... */\n    tag_10:\n        /* \"Calculator/Calculator.sol\":1226:1240  int256 result_ */\n      0x00\n        /* \"Calculator/Calculator.sol\":1262:1294  substraction_logic(num1_, num2_) */\n      tag_28\n        /* \"Calculator/Calculator.sol\":1281:1286  num1_ */\n      dup4\n        /* \"Calculator/Calculator.sol\":1288:1293  num2_ */\n      dup4\n        /* \"Calculator/Calculator.sol\":1262:1280  substraction_logic */\n      tag_29\n        /* \"Calculator/Calculator.sol\":1262:1294  substraction_logic(num1_, num2_) */\n      jump\t// in\n    tag_28:\n        /* \"Calculator/Calculator.sol\":1252:1294  result_ = substraction_logic(num1_, num2_) */\n      swap1\n      pop\n        /* \"Calculator/Calculator.sol\":1156:1301  function substraction(int256 num1_, int256 num2_) public pure returns(int256 result_) {... */\n      swap3\n      swap2\n      pop\n      pop\n      jump\t// out\n        /* \"Calculator/Calculator.sol\":1015:1150  function addition(uint256 num1_, uint256 num2_) public returns(uint256 result_) {... */\n    tag_16:\n        /* \"Calculator/Calculator.sol\":1078:1093  uint256 result_ */\n      0x00\n        /* \"Calculator/Calculator.sol\":1115:1143  addition_logic(num1_, num2_) */\n      tag_31\n        /* \"Calculator/Calculator.sol\":1130:1135  num1_ */\n      dup4\n        /* \"Calculator/Calculator.sol\":1137:1142  num2_ */\n      dup4\n        /* \"Calculator/Calculator.sol\":1115:1129  addition_logic */\n      tag_32\n        /* \"Calculator/Calculator.sol\":1115:1143  addition_logic(num1_, num2_) */\n      jump\t// in\n    tag_31:\n        /* \"Calculator/Calculator.sol\":1105:1143  result_ = addition_logic(num1_, num2_) */\n      swap1\n      pop\n        /* \"Calculator/Calculator.sol\":1015:1150  function addition(uint256 num1_, uint256 num2_) public returns(uint256 result_) {... */\n      swap3\n      swap2\n      pop\n      pop\n      jump\t// out\n        /* \"Calculator/Calculator.sol\":1452:1587  function division(uint256 num1_, uint256 num2_) public returns(uint256 result_) {... */\n    tag_21:\n        /* \"Calculator/Calculator.sol\":1515:1530  uint256 result_ */\n      0x00\n        /* \"Calculator/Calculator.sol\":1552:1580  division_logic(num1_, num2_) */\n      tag_34\n        /* \"Calculator/Calculator.sol\":1567:1572  num1_ */\n      dup4\n        /* \"Calculator/Calculator.sol\":1574:1579  num2_ */\n      dup4\n        /* \"Calculator/Calculator.sol\":1552:1566  division_logic */\n      tag_35\n        /* \"Calculator/Calculator.sol\":1552:1580  division_logic(num1_, num2_) */\n      jump\t// in\n    tag_34:\n        /* \"Calculator/Calculator.sol\":1542:1580  result_ = division_logic(num1_, num2_) */\n      swap1\n      pop\n        /* \"Calculator/Calculator.sol\":1452:1587  function division(uint256 num1_, uint256 num2_) public returns(uint256 result_) {... */\n      swap3\n      swap2\n      pop\n      pop\n      jump\t// out\n        /* \"Calculator/Calculator.sol\":1307:1446  function multiplier(uint256 num1_, uint256 num2_) public returns(uint256 result_) {... */\n    tag_25:\n        /* \"Calculator/Calculator.sol\":1372:1387  uint256 result_ */\n      0x00\n        /* \"Calculator/Calculator.sol\":1409:1439  multiplier_logic(num1_, num2_) */\n      tag_37\n        /* \"Calculator/Calculator.sol\":1426:1431  num1_ */\n      dup4\n        /* \"Calculator/Calculator.sol\":1433:1438  num2_ */\n      dup4\n        /* \"Calculator/Calculator.sol\":1409:1425  multiplier_logic */\n      tag_38\n        /* \"Calculator/Calculator.sol\":1409:1439  multiplier_logic(num1_, num2_) */\n      jump\t// in\n    tag_37:\n        /* \"Calculator/Calculator.sol\":1399:1439  result_ = multiplier_logic(num1_, num2_) */\n      swap1\n      pop\n        /* \"Calculator/Calculator.sol\":1307:1446  function multiplier(uint256 num1_, uint256 num2_) public returns(uint256 result_) {... */\n      swap3\n      swap2\n      pop\n      pop\n      jump\t// out\n        /* \"Calculator/Calculator.sol\":1807:1941  function substraction_logic(int256 num1_, int256 num2_) internal pure returns(int256 result_) {... */\n    tag_29:\n        /* \"Calculator/Calculator.sol\":1885:1899  int256 result_ */\n      0x00\n        /* \"Calculator/Calculator.sol\":1929:1934  num2_ */\n      dup2\n        /* \"Calculator/Calculator.sol\":1921:1926  num1_ */\n      dup4\n        /* \"Calculator/Calculator.sol\":1921:1934  num1_ - num2_ */\n      tag_40\n      swap2\n      swap1\n      tag_41\n      jump\t// in\n    tag_40:\n        /* \"Calculator/Calculator.sol\":1911:1934  result_ = num1_ - num2_ */\n      swap1\n      pop\n        /* \"Calculator/Calculator.sol\":1807:1941  function substraction_logic(int256 num1_, int256 num2_) internal pure returns(int256 result_) {... */\n      swap3\n      swap2\n      pop\n      pop\n      jump\t// out\n        /* \"Calculator/Calculator.sol\":1619:1801  function addition_logic(uint256 num1_, uint256 num2_) internal returns(uint256 result_) {... */\n    tag_32:\n        /* \"Calculator/Calculator.sol\":1690:1705  uint256 result_ */\n      0x00\n        /* \"Calculator/Calculator.sol\":1735:1740  num2_ */\n      dup2\n        /* \"Calculator/Calculator.sol\":1727:1732  num1_ */\n      dup4\n        /* \"Calculator/Calculator.sol\":1727:1740  num1_ + num2_ */\n      tag_43\n      swap2\n      swap1\n      tag_44\n      jump\t// in\n    tag_43:\n        /* \"Calculator/Calculator.sol\":1717:1740  result_ = num1_ + num2_ */\n      swap1\n      pop\n        /* \"Calculator/Calculator.sol\":1764:1794  Addition(num1_, num2_, result) */\n      0x099a8fd2a0841afbe8000d711d763bf2c54b2c63bed7b7f92a244ef4f5154536\n        /* \"Calculator/Calculator.sol\":1773:1778  num1_ */\n      dup4\n        /* \"Calculator/Calculator.sol\":1780:1785  num2_ */\n      dup4\n        /* \"Calculator/Calculator.sol\":1787:1793  result */\n      sload(0x00)\n        /* \"Calculator/Calculator.sol\":1764:1794  Addition(num1_, num2_, result) */\n      mload(0x40)\n      tag_45\n      swap4\n      swap3\n      swap2\n      swap1\n      tag_46\n      jump\t// in\n    tag_45:\n      mload(0x40)\n      dup1\n      swap2\n      sub\n      swap1\n      log1\n        /* \"Calculator/Calculator.sol\":1619:1801  function addition_logic(uint256 num1_, uint256 num2_) internal returns(uint256 result_) {... */\n      swap3\n      swap2\n      pop\n      pop\n      jump\t// out\n        /* \"Calculator/Calculator.sol\":2161:2364  function division_logic(uint256 num1_, uint256 num2_) internal checkDivision(num1_, num2_) returns(uint256 result_) {... */\n    tag_35:\n        /* \"Calculator/Calculator.sol\":2260:2275  uint256 result_ */\n      0x00\n        /* \"Calculator/Calculator.sol\":2238:2243  num1_ */\n      dup3\n        /* \"Calculator/Calculator.sol\":2245:2250  num2_ */\n      dup3\n        /* \"Calculator/Calculator.sol\":528:529  0 */\n      0x00\n        /* \"Calculator/Calculator.sol\":520:525  num2_ */\n      dup2\n        /* \"Calculator/Calculator.sol\":520:529  num2_ > 0 */\n      gt\n        /* \"Calculator/Calculator.sol\":512:583  require(num2_ > 0, \"The denominator ('num2_') must be greater than 0.\") */\n      tag_48\n      jumpi\n      mload(0x40)\n      0x08c379a000000000000000000000000000000000000000000000000000000000\n      dup2\n      mstore\n      0x04\n      add\n      tag_49\n      swap1\n      tag_50\n      jump\t// in\n    tag_49:\n      mload(0x40)\n      dup1\n      swap2\n      sub\n      swap1\n      revert\n    tag_48:\n        /* \"Calculator/Calculator.sol\":614:615  0 */\n      0x00\n        /* \"Calculator/Calculator.sol\":605:610  num2_ */\n      dup2\n        /* \"Calculator/Calculator.sol\":597:602  num1_ */\n      dup4\n        /* \"Calculator/Calculator.sol\":597:610  num1_ % num2_ */\n      tag_51\n      swap2\n      swap1\n      tag_52\n      jump\t// in\n    tag_51:\n        /* \"Calculator/Calculator.sol\":597:615  num1_ % num2_ != 0 */\n      eq\n        /* \"Calculator/Calculator.sol\":593:666  if (num1_ % num2_ != 0) revert(\"The reminder of the division must be 0.\") */\n      tag_53\n      jumpi\n        /* \"Calculator/Calculator.sol\":617:666  revert(\"The reminder of the division must be 0.\") */\n      mload(0x40)\n      0x08c379a000000000000000000000000000000000000000000000000000000000\n      dup2\n      mstore\n      0x04\n      add\n      tag_54\n      swap1\n      tag_55\n      jump\t// in\n    tag_54:\n      mload(0x40)\n      dup1\n      swap2\n      sub\n      swap1\n      revert\n        /* \"Calculator/Calculator.sol\":593:666  if (num1_ % num2_ != 0) revert(\"The reminder of the division must be 0.\") */\n    tag_53:\n        /* \"Calculator/Calculator.sol\":2305:2310  num2_ */\n      dup4\n        /* \"Calculator/Calculator.sol\":2297:2302  num1_ */\n      dup6\n        /* \"Calculator/Calculator.sol\":2297:2310  num1_ / num2_ */\n      tag_57\n      swap2\n      swap1\n      tag_58\n      jump\t// in\n    tag_57:\n        /* \"Calculator/Calculator.sol\":2287:2310  result_ = num1_ / num2_ */\n      swap3\n      pop\n        /* \"Calculator/Calculator.sol\":2326:2356  Division(num1_, num2_, result) */\n      0xd8ef84f712e41d28f98fe74cd153013023d849514d0a40ee61834f3c385055ce\n        /* \"Calculator/Calculator.sol\":2335:2340  num1_ */\n      dup6\n        /* \"Calculator/Calculator.sol\":2342:2347  num2_ */\n      dup6\n        /* \"Calculator/Calculator.sol\":2349:2355  result */\n      sload(0x00)\n        /* \"Calculator/Calculator.sol\":2326:2356  Division(num1_, num2_, result) */\n      mload(0x40)\n      tag_59\n      swap4\n      swap3\n      swap2\n      swap1\n      tag_46\n      jump\t// in\n    tag_59:\n      mload(0x40)\n      dup1\n      swap2\n      sub\n      swap1\n      log1\n        /* \"Calculator/Calculator.sol\":2161:2364  function division_logic(uint256 num1_, uint256 num2_) internal checkDivision(num1_, num2_) returns(uint256 result_) {... */\n      pop\n      pop\n      swap3\n      swap2\n      pop\n      pop\n      jump\t// out\n        /* \"Calculator/Calculator.sol\":1947:2155  function multiplier_logic(uint256 num1_, uint256 num2_) internal checkMultiplier(num1_, num2_) returns(uint256 result_) {... */\n    tag_38:\n        /* \"Calculator/Calculator.sol\":2050:2065  uint256 result_ */\n      0x00\n        /* \"Calculator/Calculator.sol\":2028:2033  num1_ */\n      dup3\n        /* \"Calculator/Calculator.sol\":2035:2040  num2_ */\n      dup3\n        /* \"Calculator/Calculator.sol\":269:270  0 */\n      0x00\n        /* \"Calculator/Calculator.sol\":260:265  num2_ */\n      dup2\n        /* \"Calculator/Calculator.sol\":252:257  num1_ */\n      dup4\n        /* \"Calculator/Calculator.sol\":252:265  num1_ * num2_ */\n      tag_61\n      swap2\n      swap1\n      tag_62\n      jump\t// in\n    tag_61:\n        /* \"Calculator/Calculator.sol\":252:270  num1_ * num2_ == 0 */\n      sub\n        /* \"Calculator/Calculator.sol\":248:425  if (num1_ * num2_ == 0) revert(\"The multiplication must be greater than 0.\");... */\n      tag_63\n      jumpi\n        /* \"Calculator/Calculator.sol\":272:324  revert(\"The multiplication must be greater than 0.\") */\n      mload(0x40)\n      0x08c379a000000000000000000000000000000000000000000000000000000000\n      dup2\n      mstore\n      0x04\n      add\n      tag_64\n      swap1\n      tag_65\n      jump\t// in\n    tag_64:\n      mload(0x40)\n      dup1\n      swap2\n      sub\n      swap1\n      revert\n        /* \"Calculator/Calculator.sol\":248:425  if (num1_ * num2_ == 0) revert(\"The multiplication must be greater than 0.\");... */\n    tag_63:\n        /* \"Calculator/Calculator.sol\":352:353  1 */\n      0x01\n        /* \"Calculator/Calculator.sol\":343:348  num1_ */\n      dup3\n        /* \"Calculator/Calculator.sol\":343:353  num1_ == 1 */\n      eq\n        /* \"Calculator/Calculator.sol\":343:367  num1_ == 1 || num2_ == 1 */\n      dup1\n      tag_67\n      jumpi\n      pop\n        /* \"Calculator/Calculator.sol\":366:367  1 */\n      0x01\n        /* \"Calculator/Calculator.sol\":357:362  num2_ */\n      dup2\n        /* \"Calculator/Calculator.sol\":357:367  num2_ == 1 */\n      eq\n        /* \"Calculator/Calculator.sol\":343:367  num1_ == 1 || num2_ == 1 */\n    tag_67:\n        /* \"Calculator/Calculator.sol\":339:425  if (num1_ == 1 || num2_ == 1) revert(\"One of the multipliers must be greater than 1.\") */\n      iszero\n      tag_68\n      jumpi\n        /* \"Calculator/Calculator.sol\":369:425  revert(\"One of the multipliers must be greater than 1.\") */\n      mload(0x40)\n      0x08c379a000000000000000000000000000000000000000000000000000000000\n      dup2\n      mstore\n      0x04\n      add\n      tag_69\n      swap1\n      tag_70\n      jump\t// in\n    tag_69:\n      mload(0x40)\n      dup1\n      swap2\n      sub\n      swap1\n      revert\n        /* \"Calculator/Calculator.sol\":339:425  if (num1_ == 1 || num2_ == 1) revert(\"One of the multipliers must be greater than 1.\") */\n    tag_68:\n        /* \"Calculator/Calculator.sol\":2095:2100  num2_ */\n      dup4\n        /* \"Calculator/Calculator.sol\":2087:2092  num1_ */\n      dup6\n        /* \"Calculator/Calculator.sol\":2087:2100  num1_ * num2_ */\n      tag_72\n      swap2\n      swap1\n      tag_62\n      jump\t// in\n    tag_72:\n        /* \"Calculator/Calculator.sol\":2077:2100  result_ = num1_ * num2_ */\n      swap3\n      pop\n        /* \"Calculator/Calculator.sol\":2116:2148  Multiplier(num1_, num2_, result) */\n      0x4c5195cd17c9c557223b5a741a5f96b558165f1f189e790b0b6b91a4724b0e47\n        /* \"Calculator/Calculator.sol\":2127:2132  num1_ */\n      dup6\n        /* \"Calculator/Calculator.sol\":2134:2139  num2_ */\n      dup6\n        /* \"Calculator/Calculator.sol\":2141:2147  result */\n      sload(0x00)\n        /* \"Calculator/Calculator.sol\":2116:2148  Multiplier(num1_, num2_, result) */\n      mload(0x40)\n      tag_73\n      swap4\n      swap3\n      swap2\n      swap1\n      tag_46\n      jump\t// in\n    tag_73:\n      mload(0x40)\n      dup1\n      swap2\n      sub\n      swap1\n      log1\n        /* \"Calculator/Calculator.sol\":1947:2155  function multiplier_logic(uint256 num1_, uint256 num2_) internal checkMultiplier(num1_, num2_) returns(uint256 result_) {... */\n      pop\n      pop\n      swap3\n      swap2\n      pop\n      pop\n      jump\t// out\n        /* \"#utility.yul\":88:205   */\n    tag_75:\n        /* \"#utility.yul\":197:198   */\n      0x00\n        /* \"#utility.yul\":194:195   */\n      0x00\n        /* \"#utility.yul\":187:199   */\n      revert\n        /* \"#utility.yul\":334:410   */\n    tag_77:\n        /* \"#utility.yul\":370:377   */\n      0x00\n        /* \"#utility.yul\":399:404   */\n      dup2\n        /* \"#utility.yul\":388:404   */\n      swap1\n      pop\n        /* \"#utility.yul\":334:410   */\n      swap2\n      swap1\n      pop\n      jump\t// out\n        /* \"#utility.yul\":416:536   */\n    tag_78:\n        /* \"#utility.yul\":488:511   */\n      tag_102\n        /* \"#utility.yul\":505:510   */\n      dup2\n        /* \"#utility.yul\":488:511   */\n      tag_77\n      jump\t// in\n    tag_102:\n        /* \"#utility.yul\":481:486   */\n      dup2\n        /* \"#utility.yul\":478:512   */\n      eq\n        /* \"#utility.yul\":468:530   */\n      tag_103\n      jumpi\n        /* \"#utility.yul\":526:527   */\n      0x00\n        /* \"#utility.yul\":523:524   */\n      0x00\n        /* \"#utility.yul\":516:528   */\n      revert\n        /* \"#utility.yul\":468:530   */\n    tag_103:\n        /* \"#utility.yul\":416:536   */\n      pop\n      jump\t// out\n        /* \"#utility.yul\":542:679   */\n    tag_79:\n        /* \"#utility.yul\":587:592   */\n      0x00\n        /* \"#utility.yul\":625:631   */\n      dup2\n        /* \"#utility.yul\":612:632   */\n      calldataload\n        /* \"#utility.yul\":603:632   */\n      swap1\n      pop\n        /* \"#utility.yul\":641:673   */\n      tag_105\n        /* \"#utility.yul\":667:672   */\n      dup2\n        /* \"#utility.yul\":641:673   */\n      tag_78\n      jump\t// in\n    tag_105:\n        /* \"#utility.yul\":542:679   */\n      swap3\n      swap2\n      pop\n      pop\n      jump\t// out\n        /* \"#utility.yul\":685:1155   */\n    tag_9:\n        /* \"#utility.yul\":751:757   */\n      0x00\n        /* \"#utility.yul\":759:765   */\n      0x00\n        /* \"#utility.yul\":808:810   */\n      0x40\n        /* \"#utility.yul\":796:805   */\n      dup4\n        /* \"#utility.yul\":787:794   */\n      dup6\n        /* \"#utility.yul\":783:806   */\n      sub\n        /* \"#utility.yul\":779:811   */\n      slt\n        /* \"#utility.yul\":776:895   */\n      iszero\n      tag_107\n      jumpi\n        /* \"#utility.yul\":814:893   */\n      tag_108\n      tag_75\n      jump\t// in\n    tag_108:\n        /* \"#utility.yul\":776:895   */\n    tag_107:\n        /* \"#utility.yul\":934:935   */\n      0x00\n        /* \"#utility.yul\":959:1011   */\n      tag_109\n        /* \"#utility.yul\":1003:1010   */\n      dup6\n        /* \"#utility.yul\":994:1000   */\n      dup3\n        /* \"#utility.yul\":983:992   */\n      dup7\n        /* \"#utility.yul\":979:1001   */\n      add\n        /* \"#utility.yul\":959:1011   */\n      tag_79\n      jump\t// in\n    tag_109:\n        /* \"#utility.yul\":949:1011   */\n      swap3\n      pop\n        /* \"#utility.yul\":905:1021   */\n      pop\n        /* \"#utility.yul\":1060:1062   */\n      0x20\n        /* \"#utility.yul\":1086:1138   */\n      tag_110\n        /* \"#utility.yul\":1130:1137   */\n      dup6\n        /* \"#utility.yul\":1121:1127   */\n      dup3\n        /* \"#utility.yul\":1110:1119   */\n      dup7\n        /* \"#utility.yul\":1106:1128   */\n      add\n        /* \"#utility.yul\":1086:1138   */\n      tag_79\n      jump\t// in\n    tag_110:\n        /* \"#utility.yul\":1076:1138   */\n      swap2\n      pop\n        /* \"#utility.yul\":1031:1148   */\n      pop\n        /* \"#utility.yul\":685:1155   */\n      swap3\n      pop\n      swap3\n      swap1\n      pop\n      jump\t// out\n        /* \"#utility.yul\":1161:1276   */\n    tag_80:\n        /* \"#utility.yul\":1246:1269   */\n      tag_112\n        /* \"#utility.yul\":1263:1268   */\n      dup2\n        /* \"#utility.yul\":1246:1269   */\n      tag_77\n      jump\t// in\n    tag_112:\n        /* \"#utility.yul\":1241:1244   */\n      dup3\n        /* \"#utility.yul\":1234:1270   */\n      mstore\n        /* \"#utility.yul\":1161:1276   */\n      pop\n      pop\n      jump\t// out\n        /* \"#utility.yul\":1282:1500   */\n    tag_12:\n        /* \"#utility.yul\":1373:1377   */\n      0x00\n        /* \"#utility.yul\":1411:1413   */\n      0x20\n        /* \"#utility.yul\":1400:1409   */\n      dup3\n        /* \"#utility.yul\":1396:1414   */\n      add\n        /* \"#utility.yul\":1388:1414   */\n      swap1\n      pop\n        /* \"#utility.yul\":1424:1493   */\n      tag_114\n        /* \"#utility.yul\":1490:1491   */\n      0x00\n        /* \"#utility.yul\":1479:1488   */\n      dup4\n        /* \"#utility.yul\":1475:1492   */\n      add\n        /* \"#utility.yul\":1466:1472   */\n      dup5\n        /* \"#utility.yul\":1424:1493   */\n      tag_80\n      jump\t// in\n    tag_114:\n        /* \"#utility.yul\":1282:1500   */\n      swap3\n      swap2\n      pop\n      pop\n      jump\t// out\n        /* \"#utility.yul\":1506:1583   */\n    tag_81:\n        /* \"#utility.yul\":1543:1550   */\n      0x00\n        /* \"#utility.yul\":1572:1577   */\n      dup2\n        /* \"#utility.yul\":1561:1577   */\n      swap1\n      pop\n        /* \"#utility.yul\":1506:1583   */\n      swap2\n      swap1\n      pop\n      jump\t// out\n        /* \"#utility.yul\":1589:1711   */\n    tag_82:\n        /* \"#utility.yul\":1662:1686   */\n      tag_117\n        /* \"#utility.yul\":1680:1685   */\n      dup2\n        /* \"#utility.yul\":1662:1686   */\n      tag_81\n      jump\t// in\n    tag_117:\n        /* \"#utility.yul\":1655:1660   */\n      dup2\n        /* \"#utility.yul\":1652:1687   */\n      eq\n        /* \"#utility.yul\":1642:1705   */\n      tag_118\n      jumpi\n        /* \"#utility.yul\":1701:1702   */\n      0x00\n        /* \"#utility.yul\":1698:1699   */\n      0x00\n        /* \"#utility.yul\":1691:1703   */\n      revert\n        /* \"#utility.yul\":1642:1705   */\n    tag_118:\n        /* \"#utility.yul\":1589:1711   */\n      pop\n      jump\t// out\n        /* \"#utility.yul\":1717:1856   */\n    tag_83:\n        /* \"#utility.yul\":1763:1768   */\n      0x00\n        /* \"#utility.yul\":1801:1807   */\n      dup2\n        /* \"#utility.yul\":1788:1808   */\n      calldataload\n        /* \"#utility.yul\":1779:1808   */\n      swap1\n      pop\n        /* \"#utility.yul\":1817:1850   */\n      tag_120\n        /* \"#utility.yul\":1844:1849   */\n      dup2\n        /* \"#utility.yul\":1817:1850   */\n      tag_82\n      jump\t// in\n    tag_120:\n        /* \"#utility.yul\":1717:1856   */\n      swap3\n      swap2\n      pop\n      pop\n      jump\t// out\n        /* \"#utility.yul\":1862:2336   */\n    tag_15:\n        /* \"#utility.yul\":1930:1936   */\n      0x00\n        /* \"#utility.yul\":1938:1944   */\n      0x00\n        /* \"#utility.yul\":1987:1989   */\n      0x40\n        /* \"#utility.yul\":1975:1984   */\n      dup4\n        /* \"#utility.yul\":1966:1973   */\n      dup6\n        /* \"#utility.yul\":1962:1985   */\n      sub\n        /* \"#utility.yul\":1958:1990   */\n      slt\n        /* \"#utility.yul\":1955:2074   */\n      iszero\n      tag_122\n      jumpi\n        /* \"#utility.yul\":1993:2072   */\n      tag_123\n      tag_75\n      jump\t// in\n    tag_123:\n        /* \"#utility.yul\":1955:2074   */\n    tag_122:\n        /* \"#utility.yul\":2113:2114   */\n      0x00\n        /* \"#utility.yul\":2138:2191   */\n      tag_124\n        /* \"#utility.yul\":2183:2190   */\n      dup6\n        /* \"#utility.yul\":2174:2180   */\n      dup3\n        /* \"#utility.yul\":2163:2172   */\n      dup7\n        /* \"#utility.yul\":2159:2181   */\n      add\n        /* \"#utility.yul\":2138:2191   */\n      tag_83\n      jump\t// in\n    tag_124:\n        /* \"#utility.yul\":2128:2191   */\n      swap3\n      pop\n        /* \"#utility.yul\":2084:2201   */\n      pop\n        /* \"#utility.yul\":2240:2242   */\n      0x20\n        /* \"#utility.yul\":2266:2319   */\n      tag_125\n        /* \"#utility.yul\":2311:2318   */\n      dup6\n        /* \"#utility.yul\":2302:2308   */\n      dup3\n        /* \"#utility.yul\":2291:2300   */\n      dup7\n        /* \"#utility.yul\":2287:2309   */\n      add\n        /* \"#utility.yul\":2266:2319   */\n      tag_83\n      jump\t// in\n    tag_125:\n        /* \"#utility.yul\":2256:2319   */\n      swap2\n      pop\n        /* \"#utility.yul\":2211:2329   */\n      pop\n        /* \"#utility.yul\":1862:2336   */\n      swap3\n      pop\n      swap3\n      swap1\n      pop\n      jump\t// out\n        /* \"#utility.yul\":2342:2460   */\n    tag_84:\n        /* \"#utility.yul\":2429:2453   */\n      tag_127\n        /* \"#utility.yul\":2447:2452   */\n      dup2\n        /* \"#utility.yul\":2429:2453   */\n      tag_81\n      jump\t// in\n    tag_127:\n        /* \"#utility.yul\":2424:2427   */\n      dup3\n        /* \"#utility.yul\":2417:2454   */\n      mstore\n        /* \"#utility.yul\":2342:2460   */\n      pop\n      pop\n      jump\t// out\n        /* \"#utility.yul\":2466:2688   */\n    tag_18:\n        /* \"#utility.yul\":2559:2563   */\n      0x00\n        /* \"#utility.yul\":2597:2599   */\n      0x20\n        /* \"#utility.yul\":2586:2595   */\n      dup3\n        /* \"#utility.yul\":2582:2600   */\n      add\n        /* \"#utility.yul\":2574:2600   */\n      swap1\n      pop\n        /* \"#utility.yul\":2610:2681   */\n      tag_129\n        /* \"#utility.yul\":2678:2679   */\n      0x00\n        /* \"#utility.yul\":2667:2676   */\n      dup4\n        /* \"#utility.yul\":2663:2680   */\n      add\n        /* \"#utility.yul\":2654:2660   */\n      dup5\n        /* \"#utility.yul\":2610:2681   */\n      tag_84\n      jump\t// in\n    tag_129:\n        /* \"#utility.yul\":2466:2688   */\n      swap3\n      swap2\n      pop\n      pop\n      jump\t// out\n        /* \"#utility.yul\":2694:2874   */\n    tag_85:\n        /* \"#utility.yul\":2742:2819   */\n      0x4e487b7100000000000000000000000000000000000000000000000000000000\n        /* \"#utility.yul\":2739:2740   */\n      0x00\n        /* \"#utility.yul\":2732:2820   */\n      mstore\n        /* \"#utility.yul\":2839:2843   */\n      0x11\n        /* \"#utility.yul\":2836:2837   */\n      0x04\n        /* \"#utility.yul\":2829:2844   */\n      mstore\n        /* \"#utility.yul\":2863:2867   */\n      0x24\n        /* \"#utility.yul\":2860:2861   */\n      0x00\n        /* \"#utility.yul\":2853:2868   */\n      revert\n        /* \"#utility.yul\":2880:3252   */\n    tag_41:\n        /* \"#utility.yul\":2919:2923   */\n      0x00\n        /* \"#utility.yul\":2939:2958   */\n      tag_132\n        /* \"#utility.yul\":2956:2957   */\n      dup3\n        /* \"#utility.yul\":2939:2958   */\n      tag_77\n      jump\t// in\n    tag_132:\n        /* \"#utility.yul\":2934:2958   */\n      swap2\n      pop\n        /* \"#utility.yul\":2972:2991   */\n      tag_133\n        /* \"#utility.yul\":2989:2990   */\n      dup4\n        /* \"#utility.yul\":2972:2991   */\n      tag_77\n      jump\t// in\n    tag_133:\n        /* \"#utility.yul\":2967:2991   */\n      swap3\n      pop\n        /* \"#utility.yul\":3015:3016   */\n      dup3\n        /* \"#utility.yul\":3012:3013   */\n      dup3\n        /* \"#utility.yul\":3008:3017   */\n      sub\n        /* \"#utility.yul\":3000:3017   */\n      swap1\n      pop\n        /* \"#utility.yul\":3209:3210   */\n      dup2\n        /* \"#utility.yul\":3203:3207   */\n      dup2\n        /* \"#utility.yul\":3199:3211   */\n      slt\n        /* \"#utility.yul\":3195:3196   */\n      0x00\n        /* \"#utility.yul\":3192:3193   */\n      dup5\n        /* \"#utility.yul\":3188:3197   */\n      slt\n        /* \"#utility.yul\":3184:3212   */\n      and\n        /* \"#utility.yul\":3167:3168   */\n      dup3\n        /* \"#utility.yul\":3161:3165   */\n      dup3\n        /* \"#utility.yul\":3157:3169   */\n      sgt\n        /* \"#utility.yul\":3152:3153   */\n      0x00\n        /* \"#utility.yul\":3149:3150   */\n      dup6\n        /* \"#utility.yul\":3145:3154   */\n      slt\n        /* \"#utility.yul\":3138:3155   */\n      iszero\n        /* \"#utility.yul\":3134:3170   */\n      and\n        /* \"#utility.yul\":3118:3222   */\n      or\n        /* \"#utility.yul\":3115:3245   */\n      iszero\n      tag_134\n      jumpi\n        /* \"#utility.yul\":3225:3243   */\n      tag_135\n      tag_85\n      jump\t// in\n    tag_135:\n        /* \"#utility.yul\":3115:3245   */\n    tag_134:\n        /* \"#utility.yul\":2880:3252   */\n      swap3\n      swap2\n      pop\n      pop\n      jump\t// out\n        /* \"#utility.yul\":3258:3449   */\n    tag_44:\n        /* \"#utility.yul\":3298:3301   */\n      0x00\n        /* \"#utility.yul\":3317:3337   */\n      tag_137\n        /* \"#utility.yul\":3335:3336   */\n      dup3\n        /* \"#utility.yul\":3317:3337   */\n      tag_81\n      jump\t// in\n    tag_137:\n        /* \"#utility.yul\":3312:3337   */\n      swap2\n      pop\n        /* \"#utility.yul\":3351:3371   */\n      tag_138\n        /* \"#utility.yul\":3369:3370   */\n      dup4\n        /* \"#utility.yul\":3351:3371   */\n      tag_81\n      jump\t// in\n    tag_138:\n        /* \"#utility.yul\":3346:3371   */\n      swap3\n      pop\n        /* \"#utility.yul\":3394:3395   */\n      dup3\n        /* \"#utility.yul\":3391:3392   */\n      dup3\n        /* \"#utility.yul\":3387:3396   */\n      add\n        /* \"#utility.yul\":3380:3396   */\n      swap1\n      pop\n        /* \"#utility.yul\":3415:3418   */\n      dup1\n        /* \"#utility.yul\":3412:3413   */\n      dup3\n        /* \"#utility.yul\":3409:3419   */\n      gt\n        /* \"#utility.yul\":3406:3442   */\n      iszero\n      tag_139\n      jumpi\n        /* \"#utility.yul\":3422:3440   */\n      tag_140\n      tag_85\n      jump\t// in\n    tag_140:\n        /* \"#utility.yul\":3406:3442   */\n    tag_139:\n        /* \"#utility.yul\":3258:3449   */\n      swap3\n      swap2\n      pop\n      pop\n      jump\t// out\n        /* \"#utility.yul\":3455:3897   */\n    tag_46:\n        /* \"#utility.yul\":3604:3608   */\n      0x00\n        /* \"#utility.yul\":3642:3644   */\n      0x60\n        /* \"#utility.yul\":3631:3640   */\n      dup3\n        /* \"#utility.yul\":3627:3645   */\n      add\n        /* \"#utility.yul\":3619:3645   */\n      swap1\n      pop\n        /* \"#utility.yul\":3655:3726   */\n      tag_142\n        /* \"#utility.yul\":3723:3724   */\n      0x00\n        /* \"#utility.yul\":3712:3721   */\n      dup4\n        /* \"#utility.yul\":3708:3725   */\n      add\n        /* \"#utility.yul\":3699:3705   */\n      dup7\n        /* \"#utility.yul\":3655:3726   */\n      tag_84\n      jump\t// in\n    tag_142:\n        /* \"#utility.yul\":3736:3808   */\n      tag_143\n        /* \"#utility.yul\":3804:3806   */\n      0x20\n        /* \"#utility.yul\":3793:3802   */\n      dup4\n        /* \"#utility.yul\":3789:3807   */\n      add\n        /* \"#utility.yul\":3780:3786   */\n      dup6\n        /* \"#utility.yul\":3736:3808   */\n      tag_84\n      jump\t// in\n    tag_143:\n        /* \"#utility.yul\":3818:3890   */\n      tag_144\n        /* \"#utility.yul\":3886:3888   */\n      0x40\n        /* \"#utility.yul\":3875:3884   */\n      dup4\n        /* \"#utility.yul\":3871:3889   */\n      add\n        /* \"#utility.yul\":3862:3868   */\n      dup5\n        /* \"#utility.yul\":3818:3890   */\n      tag_84\n      jump\t// in\n    tag_144:\n        /* \"#utility.yul\":3455:3897   */\n      swap5\n      swap4\n      pop\n      pop\n      pop\n      pop\n      jump\t// out\n        /* \"#utility.yul\":3903:4072   */\n    tag_86:\n        /* \"#utility.yul\":3987:3998   */\n      0x00\n        /* \"#utility.yul\":4021:4027   */\n      dup3\n        /* \"#utility.yul\":4016:4019   */\n      dup3\n        /* \"#utility.yul\":4009:4028   */\n      mstore\n        /* \"#utility.yul\":4061:4065   */\n      0x20\n        /* \"#utility.yul\":4056:4059   */\n      dup3\n        /* \"#utility.yul\":4052:4066   */\n      add\n        /* \"#utility.yul\":4037:4066   */\n      swap1\n      pop\n        /* \"#utility.yul\":3903:4072   */\n      swap3\n      swap2\n      pop\n      pop\n      jump\t// out\n        /* \"#utility.yul\":4078:4314   */\n    tag_87:\n        /* \"#utility.yul\":4218:4252   */\n      0x5468652064656e6f6d696e61746f722028276e756d325f2729206d7573742062\n        /* \"#utility.yul\":4214:4215   */\n      0x00\n        /* \"#utility.yul\":4206:4212   */\n      dup3\n        /* \"#utility.yul\":4202:4216   */\n      add\n        /* \"#utility.yul\":4195:4253   */\n      mstore\n        /* \"#utility.yul\":4287:4306   */\n      0x652067726561746572207468616e20302e000000000000000000000000000000\n        /* \"#utility.yul\":4282:4284   */\n      0x20\n        /* \"#utility.yul\":4274:4280   */\n      dup3\n        /* \"#utility.yul\":4270:4285   */\n      add\n        /* \"#utility.yul\":4263:4307   */\n      mstore\n        /* \"#utility.yul\":4078:4314   */\n      pop\n      jump\t// out\n        /* \"#utility.yul\":4320:4686   */\n    tag_88:\n        /* \"#utility.yul\":4462:4465   */\n      0x00\n        /* \"#utility.yul\":4483:4550   */\n      tag_148\n        /* \"#utility.yul\":4547:4549   */\n      0x31\n        /* \"#utility.yul\":4542:4545   */\n      dup4\n        /* \"#utility.yul\":4483:4550   */\n      tag_86\n      jump\t// in\n    tag_148:\n        /* \"#utility.yul\":4476:4550   */\n      swap2\n      pop\n        /* \"#utility.yul\":4559:4652   */\n      tag_149\n        /* \"#utility.yul\":4648:4651   */\n      dup3\n        /* \"#utility.yul\":4559:4652   */\n      tag_87\n      jump\t// in\n    tag_149:\n        /* \"#utility.yul\":4677:4679   */\n      0x40\n        /* \"#utility.yul\":4672:4675   */\n      dup3\n        /* \"#utility.yul\":4668:4680   */\n      add\n        /* \"#utility.yul\":4661:4680   */\n      swap1\n      pop\n        /* \"#utility.yul\":4320:4686   */\n      swap2\n      swap1\n      pop\n      jump\t// out\n        /* \"#utility.yul\":4692:5111   */\n    tag_50:\n        /* \"#utility.yul\":4858:4862   */\n      0x00\n        /* \"#utility.yul\":4896:4898   */\n      0x20\n        /* \"#utility.yul\":4885:4894   */\n      dup3\n        /* \"#utility.yul\":4881:4899   */\n      add\n        /* \"#utility.yul\":4873:4899   */\n      swap1\n      pop\n        /* \"#utility.yul\":4945:4954   */\n      dup2\n        /* \"#utility.yul\":4939:4943   */\n      dup2\n        /* \"#utility.yul\":4935:4955   */\n      sub\n        /* \"#utility.yul\":4931:4932   */\n      0x00\n        /* \"#utility.yul\":4920:4929   */\n      dup4\n        /* \"#utility.yul\":4916:4933   */\n      add\n        /* \"#utility.yul\":4909:4956   */\n      mstore\n        /* \"#utility.yul\":4973:5104   */\n      tag_151\n        /* \"#utility.yul\":5099:5103   */\n      dup2\n        /* \"#utility.yul\":4973:5104   */\n      tag_88\n      jump\t// in\n    tag_151:\n        /* \"#utility.yul\":4965:5104   */\n      swap1\n      pop\n        /* \"#utility.yul\":4692:5111   */\n      swap2\n      swap1\n      pop\n      jump\t// out\n        /* \"#utility.yul\":5117:5297   */\n    tag_89:\n        /* \"#utility.yul\":5165:5242   */\n      0x4e487b7100000000000000000000000000000000000000000000000000000000\n        /* \"#utility.yul\":5162:5163   */\n      0x00\n        /* \"#utility.yul\":5155:5243   */\n      mstore\n        /* \"#utility.yul\":5262:5266   */\n      0x12\n        /* \"#utility.yul\":5259:5260   */\n      0x04\n        /* \"#utility.yul\":5252:5267   */\n      mstore\n        /* \"#utility.yul\":5286:5290   */\n      0x24\n        /* \"#utility.yul\":5283:5284   */\n      0x00\n        /* \"#utility.yul\":5276:5291   */\n      revert\n        /* \"#utility.yul\":5303:5479   */\n    tag_52:\n        /* \"#utility.yul\":5335:5336   */\n      0x00\n        /* \"#utility.yul\":5352:5372   */\n      tag_154\n        /* \"#utility.yul\":5370:5371   */\n      dup3\n        /* \"#utility.yul\":5352:5372   */\n      tag_81\n      jump\t// in\n    tag_154:\n        /* \"#utility.yul\":5347:5372   */\n      swap2\n      pop\n        /* \"#utility.yul\":5386:5406   */\n      tag_155\n        /* \"#utility.yul\":5404:5405   */\n      dup4\n        /* \"#utility.yul\":5386:5406   */\n      tag_81\n      jump\t// in\n    tag_155:\n        /* \"#utility.yul\":5381:5406   */\n      swap3\n      pop\n        /* \"#utility.yul\":5425:5426   */\n      dup3\n        /* \"#utility.yul\":5415:5450   */\n      tag_156\n      jumpi\n        /* \"#utility.yul\":5430:5448   */\n      tag_157\n      tag_89\n      jump\t// in\n    tag_157:\n        /* \"#utility.yul\":5415:5450   */\n    tag_156:\n        /* \"#utility.yul\":5471:5472   */\n      dup3\n        /* \"#utility.yul\":5468:5469   */\n      dup3\n        /* \"#utility.yul\":5464:5473   */\n      mod\n        /* \"#utility.yul\":5459:5473   */\n      swap1\n      pop\n        /* \"#utility.yul\":5303:5479   */\n      swap3\n      swap2\n      pop\n      pop\n      jump\t// out\n        /* \"#utility.yul\":5485:5711   */\n    tag_90:\n        /* \"#utility.yul\":5625:5659   */\n      0x5468652072656d696e646572206f6620746865206469766973696f6e206d7573\n        /* \"#utility.yul\":5621:5622   */\n      0x00\n        /* \"#utility.yul\":5613:5619   */\n      dup3\n        /* \"#utility.yul\":5609:5623   */\n      add\n        /* \"#utility.yul\":5602:5660   */\n      mstore\n        /* \"#utility.yul\":5694:5703   */\n      0x7420626520302e00000000000000000000000000000000000000000000000000\n        /* \"#utility.yul\":5689:5691   */\n      0x20\n        /* \"#utility.yul\":5681:5687   */\n      dup3\n        /* \"#utility.yul\":5677:5692   */\n      add\n        /* \"#utility.yul\":5670:5704   */\n      mstore\n        /* \"#utility.yul\":5485:5711   */\n      pop\n      jump\t// out\n        /* \"#utility.yul\":5717:6083   */\n    tag_91:\n        /* \"#utility.yul\":5859:5862   */\n      0x00\n        /* \"#utility.yul\":5880:5947   */\n      tag_160\n        /* \"#utility.yul\":5944:5946   */\n      0x27\n        /* \"#utility.yul\":5939:5942   */\n      dup4\n        /* \"#utility.yul\":5880:5947   */\n      tag_86\n      jump\t// in\n    tag_160:\n        /* \"#utility.yul\":5873:5947   */\n      swap2\n      pop\n        /* \"#utility.yul\":5956:6049   */\n      tag_161\n        /* \"#utility.yul\":6045:6048   */\n      dup3\n        /* \"#utility.yul\":5956:6049   */\n      tag_90\n      jump\t// in\n    tag_161:\n        /* \"#utility.yul\":6074:6076   */\n      0x40\n        /* \"#utility.yul\":6069:6072   */\n      dup3\n        /* \"#utility.yul\":6065:6077   */\n      add\n        /* \"#utility.yul\":6058:6077   */\n      swap1\n      pop\n        /* \"#utility.yul\":5717:6083   */\n      swap2\n      swap1\n      pop\n      jump\t// out\n        /* \"#utility.yul\":6089:6508   */\n    tag_55:\n        /* \"#utility.yul\":6255:6259   */\n      0x00\n        /* \"#utility.yul\":6293:6295   */\n      0x20\n        /* \"#utility.yul\":6282:6291   */\n      dup3\n        /* \"#utility.yul\":6278:6296   */\n      add\n        /* \"#utility.yul\":6270:6296   */\n      swap1\n      pop\n        /* \"#utility.yul\":6342:6351   */\n      dup2\n        /* \"#utility.yul\":6336:6340   */\n      dup2\n        /* \"#utility.yul\":6332:6352   */\n      sub\n        /* \"#utility.yul\":6328:6329   */\n      0x00\n        /* \"#utility.yul\":6317:6326   */\n      dup4\n        /* \"#utility.yul\":6313:6330   */\n      add\n        /* \"#utility.yul\":6306:6353   */\n      mstore\n        /* \"#utility.yul\":6370:6501   */\n      tag_163\n        /* \"#utility.yul\":6496:6500   */\n      dup2\n        /* \"#utility.yul\":6370:6501   */\n      tag_91\n      jump\t// in\n    tag_163:\n        /* \"#utility.yul\":6362:6501   */\n      swap1\n      pop\n        /* \"#utility.yul\":6089:6508   */\n      swap2\n      swap1\n      pop\n      jump\t// out\n        /* \"#utility.yul\":6514:6699   */\n    tag_58:\n        /* \"#utility.yul\":6554:6555   */\n      0x00\n        /* \"#utility.yul\":6571:6591   */\n      tag_165\n        /* \"#utility.yul\":6589:6590   */\n      dup3\n        /* \"#utility.yul\":6571:6591   */\n      tag_81\n      jump\t// in\n    tag_165:\n        /* \"#utility.yul\":6566:6591   */\n      swap2\n      pop\n        /* \"#utility.yul\":6605:6625   */\n      tag_166\n        /* \"#utility.yul\":6623:6624   */\n      dup4\n        /* \"#utility.yul\":6605:6625   */\n      tag_81\n      jump\t// in\n    tag_166:\n        /* \"#utility.yul\":6600:6625   */\n      swap3\n      pop\n        /* \"#utility.yul\":6644:6645   */\n      dup3\n        /* \"#utility.yul\":6634:6669   */\n      tag_167\n      jumpi\n        /* \"#utility.yul\":6649:6667   */\n      tag_168\n      tag_89\n      jump\t// in\n    tag_168:\n        /* \"#utility.yul\":6634:6669   */\n    tag_167:\n        /* \"#utility.yul\":6691:6692   */\n      dup3\n        /* \"#utility.yul\":6688:6689   */\n      dup3\n        /* \"#utility.yul\":6684:6693   */\n      div\n        /* \"#utility.yul\":6679:6693   */\n      swap1\n      pop\n        /* \"#utility.yul\":6514:6699   */\n      swap3\n      swap2\n      pop\n      pop\n      jump\t// out\n        /* \"#utility.yul\":6705:7115   */\n    tag_62:\n        /* \"#utility.yul\":6745:6752   */\n      0x00\n        /* \"#utility.yul\":6768:6788   */\n      tag_170\n        /* \"#utility.yul\":6786:6787   */\n      dup3\n        /* \"#utility.yul\":6768:6788   */\n      tag_81\n      jump\t// in\n    tag_170:\n        /* \"#utility.yul\":6763:6788   */\n      swap2\n      pop\n        /* \"#utility.yul\":6802:6822   */\n      tag_171\n        /* \"#utility.yul\":6820:6821   */\n      dup4\n        /* \"#utility.yul\":6802:6822   */\n      tag_81\n      jump\t// in\n    tag_171:\n        /* \"#utility.yul\":6797:6822   */\n      swap3\n      pop\n        /* \"#utility.yul\":6857:6858   */\n      dup3\n        /* \"#utility.yul\":6854:6855   */\n      dup3\n        /* \"#utility.yul\":6850:6859   */\n      mul\n        /* \"#utility.yul\":6879:6909   */\n      tag_172\n        /* \"#utility.yul\":6897:6908   */\n      dup2\n        /* \"#utility.yul\":6879:6909   */\n      tag_81\n      jump\t// in\n    tag_172:\n        /* \"#utility.yul\":6868:6909   */\n      swap2\n      pop\n        /* \"#utility.yul\":7058:7059   */\n      dup3\n        /* \"#utility.yul\":7049:7056   */\n      dup3\n        /* \"#utility.yul\":7045:7060   */\n      div\n        /* \"#utility.yul\":7042:7043   */\n      dup5\n        /* \"#utility.yul\":7039:7061   */\n      eq\n        /* \"#utility.yul\":7019:7020   */\n      dup4\n        /* \"#utility.yul\":7012:7021   */\n      iszero\n        /* \"#utility.yul\":6992:7075   */\n      or\n        /* \"#utility.yul\":6969:7108   */\n      tag_173\n      jumpi\n        /* \"#utility.yul\":7088:7106   */\n      tag_174\n      tag_85\n      jump\t// in\n    tag_174:\n        /* \"#utility.yul\":6969:7108   */\n    tag_173:\n        /* \"#utility.yul\":6753:7115   */\n      pop\n        /* \"#utility.yul\":6705:7115   */\n      swap3\n      swap2\n      pop\n      pop\n      jump\t// out\n        /* \"#utility.yul\":7121:7350   */\n    tag_92:\n        /* \"#utility.yul\":7261:7295   */\n      0x546865206d756c7469706c69636174696f6e206d757374206265206772656174\n        /* \"#utility.yul\":7257:7258   */\n      0x00\n        /* \"#utility.yul\":7249:7255   */\n      dup3\n        /* \"#utility.yul\":7245:7259   */\n      add\n        /* \"#utility.yul\":7238:7296   */\n      mstore\n        /* \"#utility.yul\":7330:7342   */\n      0x6572207468616e20302e00000000000000000000000000000000000000000000\n        /* \"#utility.yul\":7325:7327   */\n      0x20\n        /* \"#utility.yul\":7317:7323   */\n      dup3\n        /* \"#utility.yul\":7313:7328   */\n      add\n        /* \"#utility.yul\":7306:7343   */\n      mstore\n        /* \"#utility.yul\":7121:7350   */\n      pop\n      jump\t// out\n        /* \"#utility.yul\":7356:7722   */\n    tag_93:\n        /* \"#utility.yul\":7498:7501   */\n      0x00\n        /* \"#utility.yul\":7519:7586   */\n      tag_177\n        /* \"#utility.yul\":7583:7585   */\n      0x2a\n        /* \"#utility.yul\":7578:7581   */\n      dup4\n        /* \"#utility.yul\":7519:7586   */\n      tag_86\n      jump\t// in\n    tag_177:\n        /* \"#utility.yul\":7512:7586   */\n      swap2\n      pop\n        /* \"#utility.yul\":7595:7688   */\n      tag_178\n        /* \"#utility.yul\":7684:7687   */\n      dup3\n        /* \"#utility.yul\":7595:7688   */\n      tag_92\n      jump\t// in\n    tag_178:\n        /* \"#utility.yul\":7713:7715   */\n      0x40\n        /* \"#utility.yul\":7708:7711   */\n      dup3\n        /* \"#utility.yul\":7704:7716   */\n      add\n        /* \"#utility.yul\":7697:7716   */\n      swap1\n      pop\n        /* \"#utility.yul\":7356:7722   */\n      swap2\n      swap1\n      pop\n      jump\t// out\n        /* \"#utility.yul\":7728:8147   */\n    tag_65:\n        /* \"#utility.yul\":7894:7898   */\n      0x00\n        /* \"#utility.yul\":7932:7934   */\n      0x20\n        /* \"#utility.yul\":7921:7930   */\n      dup3\n        /* \"#utility.yul\":7917:7935   */\n      add\n        /* \"#utility.yul\":7909:7935   */\n      swap1\n      pop\n        /* \"#utility.yul\":7981:7990   */\n      dup2\n        /* \"#utility.yul\":7975:7979   */\n      dup2\n        /* \"#utility.yul\":7971:7991   */\n      sub\n        /* \"#utility.yul\":7967:7968   */\n      0x00\n        /* \"#utility.yul\":7956:7965   */\n      dup4\n        /* \"#utility.yul\":7952:7969   */\n      add\n        /* \"#utility.yul\":7945:7992   */\n      mstore\n        /* \"#utility.yul\":8009:8140   */\n      tag_180\n        /* \"#utility.yul\":8135:8139   */\n      dup2\n        /* \"#utility.yul\":8009:8140   */\n      tag_93\n      jump\t// in\n    tag_180:\n        /* \"#utility.yul\":8001:8140   */\n      swap1\n      pop\n        /* \"#utility.yul\":7728:8147   */\n      swap2\n      swap1\n      pop\n      jump\t// out\n        /* \"#utility.yul\":8153:8386   */\n    tag_94:\n        /* \"#utility.yul\":8293:8327   */\n      0x4f6e65206f6620746865206d756c7469706c69657273206d7573742062652067\n        /* \"#utility.yul\":8289:8290   */\n      0x00\n        /* \"#utility.yul\":8281:8287   */\n      dup3\n        /* \"#utility.yul\":8277:8291   */\n      add\n        /* \"#utility.yul\":8270:8328   */\n      mstore\n        /* \"#utility.yul\":8362:8378   */\n      0x726561746572207468616e20312e000000000000000000000000000000000000\n        /* \"#utility.yul\":8357:8359   */\n      0x20\n        /* \"#utility.yul\":8349:8355   */\n      dup3\n        /* \"#utility.yul\":8345:8360   */\n      add\n        /* \"#utility.yul\":8338:8379   */\n      mstore\n        /* \"#utility.yul\":8153:8386   */\n      pop\n      jump\t// out\n        /* \"#utility.yul\":8392:8758   */\n    tag_95:\n        /* \"#utility.yul\":8534:8537   */\n      0x00\n        /* \"#utility.yul\":8555:8622   */\n      tag_183\n        /* \"#utility.yul\":8619:8621   */\n      0x2e\n        /* \"#utility.yul\":8614:8617   */\n      dup4\n        /* \"#utility.yul\":8555:8622   */\n      tag_86\n      jump\t// in\n    tag_183:\n        /* \"#utility.yul\":8548:8622   */\n      swap2\n      pop\n        /* \"#utility.yul\":8631:8724   */\n      tag_184\n        /* \"#utility.yul\":8720:8723   */\n      dup3\n        /* \"#utility.yul\":8631:8724   */\n      tag_94\n      jump\t// in\n    tag_184:\n        /* \"#utility.yul\":8749:8751   */\n      0x40\n        /* \"#utility.yul\":8744:8747   */\n      dup3\n        /* \"#utility.yul\":8740:8752   */\n      add\n        /* \"#utility.yul\":8733:8752   */\n      swap1\n      pop\n        /* \"#utility.yul\":8392:8758   */\n      swap2\n      swap1\n      pop\n      jump\t// out\n        /* \"#utility.yul\":8764:9183   */\n    tag_70:\n        /* \"#utility.yul\":8930:8934   */\n      0x00\n        /* \"#utility.yul\":8968:8970   */\n      0x20\n        /* \"#utility.yul\":8957:8966   */\n      dup3\n        /* \"#utility.yul\":8953:8971   */\n      add\n        /* \"#utility.yul\":8945:8971   */\n      swap1\n      pop\n        /* \"#utility.yul\":9017:9026   */\n      dup2\n        /* \"#utility.yul\":9011:9015   */\n      dup2\n        /* \"#utility.yul\":9007:9027   */\n      sub\n        /* \"#utility.yul\":9003:9004   */\n      0x00\n        /* \"#utility.yul\":8992:9001   */\n      dup4\n        /* \"#utility.yul\":8988:9005   */\n      add\n        /* \"#utility.yul\":8981:9028   */\n      mstore\n        /* \"#utility.yul\":9045:9176   */\n      tag_186\n        /* \"#utility.yul\":9171:9175   */\n      dup2\n        /* \"#utility.yul\":9045:9176   */\n      tag_95\n      jump\t// in\n    tag_186:\n        /* \"#utility.yul\":9037:9176   */\n      swap1\n      pop\n        /* \"#utility.yul\":8764:9183   */\n      swap2\n      swap1\n      pop\n      jump\t// out\n\n    auxdata: 0xa2646970667358221220c8f31bb578534e8124142cf2c7ecb94670d07121bb975bea95ff8171d7ec9d7f64736f6c634300081e0033\n}\n",
				"bytecode": {
					"linkReferences": {},
					"object": "6080604052348015600e575f5ffd5b506108ec8061001c5f395ff3fe608060405234801561000f575f5ffd5b506004361061004a575f3560e01c8063294bfb191461004e57806354f363a31461007e578063e0068052146100ae578063e941b9ac146100de575b5f5ffd5b610068600480360381019061006391906103cc565b61010e565b6040516100759190610419565b60405180910390f35b61009860048036038101906100939190610465565b610121565b6040516100a591906104b2565b60405180910390f35b6100c860048036038101906100c39190610465565b610134565b6040516100d591906104b2565b60405180910390f35b6100f860048036038101906100f39190610465565b610147565b60405161010591906104b2565b60405180910390f35b5f610119838361015a565b905092915050565b5f61012c838361016f565b905092915050565b5f61013f83836101c0565b905092915050565b5f61015283836102a4565b905092915050565b5f818361016791906104f8565b905092915050565b5f818361017c9190610538565b90507f099a8fd2a0841afbe8000d711d763bf2c54b2c63bed7b7f92a244ef4f515453683835f546040516101b29392919061056b565b60405180910390a192915050565b5f82825f8111610205576040517f08c379a00000000000000000000000000000000000000000000000000000000081526004016101fc90610620565b60405180910390fd5b5f8183610212919061066b565b14610252576040517f08c379a00000000000000000000000000000000000000000000000000000000081526004016102499061070b565b60405180910390fd5b838561025e9190610729565b92507fd8ef84f712e41d28f98fe74cd153013023d849514d0a40ee61834f3c385055ce85855f546040516102949392919061056b565b60405180910390a1505092915050565b5f82825f81836102b49190610759565b036102f4576040517f08c379a00000000000000000000000000000000000000000000000000000000081526004016102eb9061080a565b60405180910390fd5b60018214806103035750600181145b15610343576040517f08c379a000000000000000000000000000000000000000000000000000000000815260040161033a90610898565b60405180910390fd5b838561034f9190610759565b92507f4c5195cd17c9c557223b5a741a5f96b558165f1f189e790b0b6b91a4724b0e4785855f546040516103859392919061056b565b60405180910390a1505092915050565b5f5ffd5b5f819050919050565b6103ab81610399565b81146103b5575f5ffd5b50565b5f813590506103c6816103a2565b92915050565b5f5f604083850312156103e2576103e1610395565b5b5f6103ef858286016103b8565b9250506020610400858286016103b8565b9150509250929050565b61041381610399565b82525050565b5f60208201905061042c5f83018461040a565b92915050565b5f819050919050565b61044481610432565b811461044e575f5ffd5b50565b5f8135905061045f8161043b565b92915050565b5f5f6040838503121561047b5761047a610395565b5b5f61048885828601610451565b925050602061049985828601610451565b9150509250929050565b6104ac81610432565b82525050565b5f6020820190506104c55f8301846104a3565b92915050565b7f4e487b71000000000000000000000000000000000000000000000000000000005f52601160045260245ffd5b5f61050282610399565b915061050d83610399565b925082820390508181125f8412168282135f851215161715610532576105316104cb565b5b92915050565b5f61054282610432565b915061054d83610432565b9250828201905080821115610565576105646104cb565b5b92915050565b5f60608201905061057e5f8301866104a3565b61058b60208301856104a3565b61059860408301846104a3565b949350505050565b5f82825260208201905092915050565b7f5468652064656e6f6d696e61746f722028276e756d325f2729206d75737420625f8201527f652067726561746572207468616e20302e000000000000000000000000000000602082015250565b5f61060a6031836105a0565b9150610615826105b0565b604082019050919050565b5f6020820190508181035f830152610637816105fe565b9050919050565b7f4e487b71000000000000000000000000000000000000000000000000000000005f52601260045260245ffd5b5f61067582610432565b915061068083610432565b9250826106905761068f61063e565b5b828206905092915050565b7f5468652072656d696e646572206f6620746865206469766973696f6e206d75735f8201527f7420626520302e00000000000000000000000000000000000000000000000000602082015250565b5f6106f56027836105a0565b91506107008261069b565b604082019050919050565b5f6020820190508181035f830152610722816106e9565b9050919050565b5f61073382610432565b915061073e83610432565b92508261074e5761074d61063e565b5b828204905092915050565b5f61076382610432565b915061076e83610432565b925082820261077c81610432565b91508282048414831517610793576107926104cb565b5b5092915050565b7f546865206d756c7469706c69636174696f6e206d7573742062652067726561745f8201527f6572207468616e20302e00000000000000000000000000000000000000000000602082015250565b5f6107f4602a836105a0565b91506107ff8261079a565b604082019050919050565b5f6020820190508181035f830152610821816107e8565b9050919050565b7f4f6e65206f6620746865206d756c7469706c69657273206d75737420626520675f8201527f726561746572207468616e20312e000000000000000000000000000000000000602082015250565b5f610882602e836105a0565b915061088d82610828565b604082019050919050565b5f6020820190508181035f8301526108af81610876565b905091905056fea2646970667358221220c8f31bb578534e8124142cf2c7ecb94670d07121bb975bea95ff8171d7ec9d7f64736f6c634300081e0033",
					"opcodes": "PUSH1 0x80 PUSH1 0x40 MSTORE CALLVALUE DUP1 ISZERO PUSH1 0xE JUMPI PUSH0 PUSH0 REVERT JUMPDEST POP PUSH2 0x8EC DUP1 PUSH2 0x1C PUSH0 CODECOPY PUSH0 RETURN INVALID PUSH1 0x80 PUSH1 0x40 MSTORE CALLVALUE DUP1 ISZERO PUSH2 0xF JUMPI PUSH0 PUSH0 REVERT JUMPDEST POP PUSH1 0x4 CALLDATASIZE LT PUSH2 0x4A JUMPI PUSH0 CALLDATALOAD PUSH1 0xE0 SHR DUP1 PUSH4 0x294BFB19 EQ PUSH2 0x4E JUMPI DUP1 PUSH4 0x54F363A3 EQ PUSH2 0x7E JUMPI DUP1 PUSH4 0xE0068052 EQ PUSH2 0xAE JUMPI DUP1 PUSH4 0xE941B9AC EQ PUSH2 0xDE JUMPI JUMPDEST PUSH0 PUSH0 REVERT JUMPDEST PUSH2 0x68 PUSH1 0x4 DUP1 CALLDATASIZE SUB DUP2 ADD SWAP1 PUSH2 0x63 SWAP2 SWAP1 PUSH2 0x3CC JUMP JUMPDEST PUSH2 0x10E JUMP JUMPDEST PUSH1 0x40 MLOAD PUSH2 0x75 SWAP2 SWAP1 PUSH2 0x419 JUMP JUMPDEST PUSH1 0x40 MLOAD DUP1 SWAP2 SUB SWAP1 RETURN JUMPDEST PUSH2 0x98 PUSH1 0x4 DUP1 CALLDATASIZE SUB DUP2 ADD SWAP1 PUSH2 0x93 SWAP2 SWAP1 PUSH2 0x465 JUMP JUMPDEST PUSH2 0x121 JUMP JUMPDEST PUSH1 0x40 MLOAD PUSH2 0xA5 SWAP2 SWAP1 PUSH2 0x4B2 JUMP JUMPDEST PUSH1 0x40 MLOAD DUP1 SWAP2 SUB SWAP1 RETURN JUMPDEST PUSH2 0xC8 PUSH1 0x4 DUP1 CALLDATASIZE SUB DUP2 ADD SWAP1 PUSH2 0xC3 SWAP2 SWAP1 PUSH2 0x465 JUMP JUMPDEST PUSH2 0x134 JUMP JUMPDEST PUSH1 0x40 MLOAD PUSH2 0xD5 SWAP2 SWAP1 PUSH2 0x4B2 JUMP JUMPDEST PUSH1 0x40 MLOAD DUP1 SWAP2 SUB SWAP1 RETURN JUMPDEST PUSH2 0xF8 PUSH1 0x4 DUP1 CALLDATASIZE SUB DUP2 ADD SWAP1 PUSH2 0xF3 SWAP2 SWAP1 PUSH2 0x465 JUMP JUMPDEST PUSH2 0x147 JUMP JUMPDEST PUSH1 0x40 MLOAD PUSH2 0x105 SWAP2 SWAP1 PUSH2 0x4B2 JUMP JUMPDEST PUSH1 0x40 MLOAD DUP1 SWAP2 SUB SWAP1 RETURN JUMPDEST PUSH0 PUSH2 0x119 DUP4 DUP4 PUSH2 0x15A JUMP JUMPDEST SWAP1 POP SWAP3 SWAP2 POP POP JUMP JUMPDEST PUSH0 PUSH2 0x12C DUP4 DUP4 PUSH2 0x16F JUMP JUMPDEST SWAP1 POP SWAP3 SWAP2 POP POP JUMP JUMPDEST PUSH0 PUSH2 0x13F DUP4 DUP4 PUSH2 0x1C0 JUMP JUMPDEST SWAP1 POP SWAP3 SWAP2 POP POP JUMP JUMPDEST PUSH0 PUSH2 0x152 DUP4 DUP4 PUSH2 0x2A4 JUMP JUMPDEST SWAP1 POP SWAP3 SWAP2 POP POP JUMP JUMPDEST PUSH0 DUP2 DUP4 PUSH2 0x167 SWAP2 SWAP1 PUSH2 0x4F8 JUMP JUMPDEST SWAP1 POP SWAP3 SWAP2 POP POP JUMP JUMPDEST PUSH0 DUP2 DUP4 PUSH2 0x17C SWAP2 SWAP1 PUSH2 0x538 JUMP JUMPDEST SWAP1 POP PUSH32 0x99A8FD2A0841AFBE8000D711D763BF2C54B2C63BED7B7F92A244EF4F5154536 DUP4 DUP4 PUSH0 SLOAD PUSH1 0x40 MLOAD PUSH2 0x1B2 SWAP4 SWAP3 SWAP2 SWAP1 PUSH2 0x56B JUMP JUMPDEST PUSH1 0x40 MLOAD DUP1 SWAP2 SUB SWAP1 LOG1 SWAP3 SWAP2 POP POP JUMP JUMPDEST PUSH0 DUP3 DUP3 PUSH0 DUP2 GT PUSH2 0x205 JUMPI PUSH1 0x40 MLOAD PUSH32 0x8C379A000000000000000000000000000000000000000000000000000000000 DUP2 MSTORE PUSH1 0x4 ADD PUSH2 0x1FC SWAP1 PUSH2 0x620 JUMP JUMPDEST PUSH1 0x40 MLOAD DUP1 SWAP2 SUB SWAP1 REVERT JUMPDEST PUSH0 DUP2 DUP4 PUSH2 0x212 SWAP2 SWAP1 PUSH2 0x66B JUMP JUMPDEST EQ PUSH2 0x252 JUMPI PUSH1 0x40 MLOAD PUSH32 0x8C379A000000000000000000000000000000000000000000000000000000000 DUP2 MSTORE PUSH1 0x4 ADD PUSH2 0x249 SWAP1 PUSH2 0x70B JUMP JUMPDEST PUSH1 0x40 MLOAD DUP1 SWAP2 SUB SWAP1 REVERT JUMPDEST DUP4 DUP6 PUSH2 0x25E SWAP2 SWAP1 PUSH2 0x729 JUMP JUMPDEST SWAP3 POP PUSH32 0xD8EF84F712E41D28F98FE74CD153013023D849514D0A40EE61834F3C385055CE DUP6 DUP6 PUSH0 SLOAD PUSH1 0x40 MLOAD PUSH2 0x294 SWAP4 SWAP3 SWAP2 SWAP1 PUSH2 0x56B JUMP JUMPDEST PUSH1 0x40 MLOAD DUP1 SWAP2 SUB SWAP1 LOG1 POP POP SWAP3 SWAP2 POP POP JUMP JUMPDEST PUSH0 DUP3 DUP3 PUSH0 DUP2 DUP4 PUSH2 0x2B4 SWAP2 SWAP1 PUSH2 0x759 JUMP JUMPDEST SUB PUSH2 0x2F4 JUMPI PUSH1 0x40 MLOAD PUSH32 0x8C379A000000000000000000000000000000000000000000000000000000000 DUP2 MSTORE PUSH1 0x4 ADD PUSH2 0x2EB SWAP1 PUSH2 0x80A JUMP JUMPDEST PUSH1 0x40 MLOAD DUP1 SWAP2 SUB SWAP1 REVERT JUMPDEST PUSH1 0x1 DUP3 EQ DUP1 PUSH2 0x303 JUMPI POP PUSH1 0x1 DUP2 EQ JUMPDEST ISZERO PUSH2 0x343 JUMPI PUSH1 0x40 MLOAD PUSH32 0x8C379A000000000000000000000000000000000000000000000000000000000 DUP2 MSTORE PUSH1 0x4 ADD PUSH2 0x33A SWAP1 PUSH2 0x898 JUMP JUMPDEST PUSH1 0x40 MLOAD DUP1 SWAP2 SUB SWAP1 REVERT JUMPDEST DUP4 DUP6 PUSH2 0x34F SWAP2 SWAP1 PUSH2 0x759 JUMP JUMPDEST SWAP3 POP PUSH32 0x4C5195CD17C9C557223B5A741A5F96B558165F1F189E790B0B6B91A4724B0E47 DUP6 DUP6 PUSH0 SLOAD PUSH1 0x40 MLOAD PUSH2 0x385 SWAP4 SWAP3 SWAP2 SWAP1 PUSH2 0x56B JUMP JUMPDEST PUSH1 0x40 MLOAD DUP1 SWAP2 SUB SWAP1 LOG1 POP POP SWAP3 SWAP2 POP POP JUMP JUMPDEST PUSH0 PUSH0 REVERT JUMPDEST PUSH0 DUP2 SWAP1 POP SWAP2 SWAP1 POP JUMP JUMPDEST PUSH2 0x3AB DUP2 PUSH2 0x399 JUMP JUMPDEST DUP2 EQ PUSH2 0x3B5 JUMPI PUSH0 PUSH0 REVERT JUMPDEST POP JUMP JUMPDEST PUSH0 DUP2 CALLDATALOAD SWAP1 POP PUSH2 0x3C6 DUP2 PUSH2 0x3A2 JUMP JUMPDEST SWAP3 SWAP2 POP POP JUMP JUMPDEST PUSH0 PUSH0 PUSH1 0x40 DUP4 DUP6 SUB SLT ISZERO PUSH2 0x3E2 JUMPI PUSH2 0x3E1 PUSH2 0x395 JUMP JUMPDEST JUMPDEST PUSH0 PUSH2 0x3EF DUP6 DUP3 DUP7 ADD PUSH2 0x3B8 JUMP JUMPDEST SWAP3 POP POP PUSH1 0x20 PUSH2 0x400 DUP6 DUP3 DUP7 ADD PUSH2 0x3B8 JUMP JUMPDEST SWAP2 POP POP SWAP3 POP SWAP3 SWAP1 POP JUMP JUMPDEST PUSH2 0x413 DUP2 PUSH2 0x399 JUMP JUMPDEST DUP3 MSTORE POP POP JUMP JUMPDEST PUSH0 PUSH1 0x20 DUP3 ADD SWAP1 POP PUSH2 0x42C PUSH0 DUP4 ADD DUP5 PUSH2 0x40A JUMP JUMPDEST SWAP3 SWAP2 POP POP JUMP JUMPDEST PUSH0 DUP2 SWAP1 POP SWAP2 SWAP1 POP JUMP JUMPDEST PUSH2 0x444 DUP2 PUSH2 0x432 JUMP JUMPDEST DUP2 EQ PUSH2 0x44E JUMPI PUSH0 PUSH0 REVERT JUMPDEST POP JUMP JUMPDEST PUSH0 DUP2 CALLDATALOAD SWAP1 POP PUSH2 0x45F DUP2 PUSH2 0x43B JUMP JUMPDEST SWAP3 SWAP2 POP POP JUMP JUMPDEST PUSH0 PUSH0 PUSH1 0x40 DUP4 DUP6 SUB SLT ISZERO PUSH2 0x47B JUMPI PUSH2 0x47A PUSH2 0x395 JUMP JUMPDEST JUMPDEST PUSH0 PUSH2 0x488 DUP6 DUP3 DUP7 ADD PUSH2 0x451 JUMP JUMPDEST SWAP3 POP POP PUSH1 0x20 PUSH2 0x499 DUP6 DUP3 DUP7 ADD PUSH2 0x451 JUMP JUMPDEST SWAP2 POP POP SWAP3 POP SWAP3 SWAP1 POP JUMP JUMPDEST PUSH2 0x4AC DUP2 PUSH2 0x432 JUMP JUMPDEST DUP3 MSTORE POP POP JUMP JUMPDEST PUSH0 PUSH1 0x20 DUP3 ADD SWAP1 POP PUSH2 0x4C5 PUSH0 DUP4 ADD DUP5 PUSH2 0x4A3 JUMP JUMPDEST SWAP3 SWAP2 POP POP JUMP JUMPDEST PUSH32 0x4E487B7100000000000000000000000000000000000000000000000000000000 PUSH0 MSTORE PUSH1 0x11 PUSH1 0x4 MSTORE PUSH1 0x24 PUSH0 REVERT JUMPDEST PUSH0 PUSH2 0x502 DUP3 PUSH2 0x399 JUMP JUMPDEST SWAP2 POP PUSH2 0x50D DUP4 PUSH2 0x399 JUMP JUMPDEST SWAP3 POP DUP3 DUP3 SUB SWAP1 POP DUP2 DUP2 SLT PUSH0 DUP5 SLT AND DUP3 DUP3 SGT PUSH0 DUP6 SLT ISZERO AND OR ISZERO PUSH2 0x532 JUMPI PUSH2 0x531 PUSH2 0x4CB JUMP JUMPDEST JUMPDEST SWAP3 SWAP2 POP POP JUMP JUMPDEST PUSH0 PUSH2 0x542 DUP3 PUSH2 0x432 JUMP JUMPDEST SWAP2 POP PUSH2 0x54D DUP4 PUSH2 0x432 JUMP JUMPDEST SWAP3 POP DUP3 DUP3 ADD SWAP1 POP DUP1 DUP3 GT ISZERO PUSH2 0x565 JUMPI PUSH2 0x564 PUSH2 0x4CB JUMP JUMPDEST JUMPDEST SWAP3 SWAP2 POP POP JUMP JUMPDEST PUSH0 PUSH1 0x60 DUP3 ADD SWAP1 POP PUSH2 0x57E PUSH0 DUP4 ADD DUP7 PUSH2 0x4A3 JUMP JUMPDEST PUSH2 0x58B PUSH1 0x20 DUP4 ADD DUP6 PUSH2 0x4A3 JUMP JUMPDEST PUSH2 0x598 PUSH1 0x40 DUP4 ADD DUP5 PUSH2 0x4A3 JUMP JUMPDEST SWAP5 SWAP4 POP POP POP POP JUMP JUMPDEST PUSH0 DUP3 DUP3 MSTORE PUSH1 0x20 DUP3 ADD SWAP1 POP SWAP3 SWAP2 POP POP JUMP JUMPDEST PUSH32 0x5468652064656E6F6D696E61746F722028276E756D325F2729206D7573742062 PUSH0 DUP3 ADD MSTORE PUSH32 0x652067726561746572207468616E20302E000000000000000000000000000000 PUSH1 0x20 DUP3 ADD MSTORE POP JUMP JUMPDEST PUSH0 PUSH2 0x60A PUSH1 0x31 DUP4 PUSH2 0x5A0 JUMP JUMPDEST SWAP2 POP PUSH2 0x615 DUP3 PUSH2 0x5B0 JUMP JUMPDEST PUSH1 0x40 DUP3 ADD SWAP1 POP SWAP2 SWAP1 POP JUMP JUMPDEST PUSH0 PUSH1 0x20 DUP3 ADD SWAP1 POP DUP2 DUP2 SUB PUSH0 DUP4 ADD MSTORE PUSH2 0x637 DUP2 PUSH2 0x5FE JUMP JUMPDEST SWAP1 POP SWAP2 SWAP1 POP JUMP JUMPDEST PUSH32 0x4E487B7100000000000000000000000000000000000000000000000000000000 PUSH0 MSTORE PUSH1 0x12 PUSH1 0x4 MSTORE PUSH1 0x24 PUSH0 REVERT JUMPDEST PUSH0 PUSH2 0x675 DUP3 PUSH2 0x432 JUMP JUMPDEST SWAP2 POP PUSH2 0x680 DUP4 PUSH2 0x432 JUMP JUMPDEST SWAP3 POP DUP3 PUSH2 0x690 JUMPI PUSH2 0x68F PUSH2 0x63E JUMP JUMPDEST JUMPDEST DUP3 DUP3 MOD SWAP1 POP SWAP3 SWAP2 POP POP JUMP JUMPDEST PUSH32 0x5468652072656D696E646572206F6620746865206469766973696F6E206D7573 PUSH0 DUP3 ADD MSTORE PUSH32 0x7420626520302E00000000000000000000000000000000000000000000000000 PUSH1 0x20 DUP3 ADD MSTORE POP JUMP JUMPDEST PUSH0 PUSH2 0x6F5 PUSH1 0x27 DUP4 PUSH2 0x5A0 JUMP JUMPDEST SWAP2 POP PUSH2 0x700 DUP3 PUSH2 0x69B JUMP JUMPDEST PUSH1 0x40 DUP3 ADD SWAP1 POP SWAP2 SWAP1 POP JUMP JUMPDEST PUSH0 PUSH1 0x20 DUP3 ADD SWAP1 POP DUP2 DUP2 SUB PUSH0 DUP4 ADD MSTORE PUSH2 0x722 DUP2 PUSH2 0x6E9 JUMP JUMPDEST SWAP1 POP SWAP2 SWAP1 POP JUMP JUMPDEST PUSH0 PUSH2 0x733 DUP3 PUSH2 0x432 JUMP JUMPDEST SWAP2 POP PUSH2 0x73E DUP4 PUSH2 0x432 JUMP JUMPDEST SWAP3 POP DUP3 PUSH2 0x74E JUMPI PUSH2 0x74D PUSH2 0x63E JUMP JUMPDEST JUMPDEST DUP3 DUP3 DIV SWAP1 POP SWAP3 SWAP2 POP POP JUMP JUMPDEST PUSH0 PUSH2 0x763 DUP3 PUSH2 0x432 JUMP JUMPDEST SWAP2 POP PUSH2 0x76E DUP4 PUSH2 0x432 JUMP JUMPDEST SWAP3 POP DUP3 DUP3 MUL PUSH2 0x77C DUP2 PUSH2 0x432 JUMP JUMPDEST SWAP2 POP DUP3 DUP3 DIV DUP5 EQ DUP4 ISZERO OR PUSH2 0x793 JUMPI PUSH2 0x792 PUSH2 0x4CB JUMP JUMPDEST JUMPDEST POP SWAP3 SWAP2 POP POP JUMP JUMPDEST PUSH32 0x546865206D756C7469706C69636174696F6E206D757374206265206772656174 PUSH0 DUP3 ADD MSTORE PUSH32 0x6572207468616E20302E00000000000000000000000000000000000000000000 PUSH1 0x20 DUP3 ADD MSTORE POP JUMP JUMPDEST PUSH0 PUSH2 0x7F4 PUSH1 0x2A DUP4 PUSH2 0x5A0 JUMP JUMPDEST SWAP2 POP PUSH2 0x7FF DUP3 PUSH2 0x79A JUMP JUMPDEST PUSH1 0x40 DUP3 ADD SWAP1 POP SWAP2 SWAP1 POP JUMP JUMPDEST PUSH0 PUSH1 0x20 DUP3 ADD SWAP1 POP DUP2 DUP2 SUB PUSH0 DUP4 ADD MSTORE PUSH2 0x821 DUP2 PUSH2 0x7E8 JUMP JUMPDEST SWAP1 POP SWAP2 SWAP1 POP JUMP JUMPDEST PUSH32 0x4F6E65206F6620746865206D756C7469706C69657273206D7573742062652067 PUSH0 DUP3 ADD MSTORE PUSH32 0x726561746572207468616E20312E000000000000000000000000000000000000 PUSH1 0x20 DUP3 ADD MSTORE POP JUMP JUMPDEST PUSH0 PUSH2 0x882 PUSH1 0x2E DUP4 PUSH2 0x5A0 JUMP JUMPDEST SWAP2 POP PUSH2 0x88D DUP3 PUSH2 0x828 JUMP JUMPDEST PUSH1 0x40 DUP3 ADD SWAP1 POP SWAP2 SWAP1 POP JUMP JUMPDEST PUSH0 PUSH1 0x20 DUP3 ADD SWAP1 POP DUP2 DUP2 SUB PUSH0 DUP4 ADD MSTORE PUSH2 0x8AF DUP2 PUSH2 0x876 JUMP JUMPDEST SWAP1 POP SWAP2 SWAP1 POP JUMP INVALID LOG2 PUSH5 0x6970667358 0x22 SLT KECCAK256 0xC8 RETURN SHL 0xB5 PUSH25 0x534E8124142CF2C7ECB94670D07121BB975BEA95FF8171D7EC SWAP14 PUSH32 0x64736F6C634300081E0033000000000000000000000000000000000000000000 "
				},
				"gasEstimates": {
					"creation": {
						"codeDepositCost": "456800",
						"executionCost": "491",
						"totalCost": "457291"
					},
					"external": {
						"addition(uint256,uint256)": "infinite",
						"division(uint256,uint256)": "infinite",
						"multiplier(uint256,uint256)": "infinite",
						"substraction(int256,int256)": "infinite"
					},
					"internal": {
						"addition_logic(uint256,uint256)": "infinite",
						"division_logic(uint256,uint256)": "infinite",
						"multiplier_logic(uint256,uint256)": "infinite",
						"substraction_logic(int256,int256)": "infinite"
					}
				},
				"methodIdentifiers": {
					"addition(uint256,uint256)": "54f363a3",
					"division(uint256,uint256)": "e0068052",
					"multiplier(uint256,uint256)": "e941b9ac",
					"substraction(int256,int256)": "294bfb19"
				}
			},
			"storageLayout": {
				"storage": [
					{
						"astId": 3,
						"contract": "Calculator/Calculator.sol:Calculator",
						"label": "result",
						"offset": 0,
						"slot": "0",
						"type": "t_uint256"
					}
				],
				"types": {
					"t_uint256": {
						"encoding": "inplace",
						"label": "uint256",
						"numberOfBytes": "32"
					}
				}
			},
			"userdoc": {
				"kind": "user",
				"methods": {},
				"version": 1
			}
		}
	}
}