{
	"data": {
		"bytecode": {
			"linkReferences": {},
			"object": "6080604052348015600e575f5ffd5b506108068061001c5f395ff3fe608060405234801561000f575f5ffd5b506004361061004a575f3560e01c8063294bfb191461004e57806354f363a31461007e578063e0068052146100ae578063e941b9ac146100de575b5f5ffd5b61006860048036038101906100639190610374565b61010e565b60405161007591906103c1565b60405180910390f35b6100986004803603810190610093919061040d565b610121565b6040516100a5919061045a565b60405180910390f35b6100c860048036038101906100c3919061040d565b610134565b6040516100d5919061045a565b60405180910390f35b6100f860048036038101906100f3919061040d565b610147565b604051610105919061045a565b60405180910390f35b5f610119838361015a565b905092915050565b5f61012c838361016f565b905092915050565b5f61013f83836101c0565b905092915050565b5f61015283836102a4565b905092915050565b5f818361016791906104a0565b905092915050565b5f818361017c91906104e0565b90507f099a8fd2a0841afbe8000d711d763bf2c54b2c63bed7b7f92a244ef4f515453683835f546040516101b293929190610513565b60405180910390a192915050565b5f82825f8111610205576040517f08c379a00000000000000000000000000000000000000000000000000000000081526004016101fc906105c8565b60405180910390fd5b5f81836102129190610613565b14610252576040517f08c379a0000000000000000000000000000000000000000000000000000000008152600401610249906106b3565b60405180910390fd5b838561025e91906106d1565b92507fd8ef84f712e41d28f98fe74cd153013023d849514d0a40ee61834f3c385055ce85855f5460405161029493929190610513565b60405180910390a1505092915050565b5f82825f818316116102eb576040517f08c379a00000000000000000000000000000000000000000000000000000000081526004016102e290610771565b60405180910390fd5b83856102f7919061078f565b92507f4c5195cd17c9c557223b5a741a5f96b558165f1f189e790b0b6b91a4724b0e4785855f5460405161032d93929190610513565b60405180910390a1505092915050565b5f5ffd5b5f819050919050565b61035381610341565b811461035d575f5ffd5b50565b5f8135905061036e8161034a565b92915050565b5f5f6040838503121561038a5761038961033d565b5b5f61039785828601610360565b92505060206103a885828601610360565b9150509250929050565b6103bb81610341565b82525050565b5f6020820190506103d45f8301846103b2565b92915050565b5f819050919050565b6103ec816103da565b81146103f6575f5ffd5b50565b5f81359050610407816103e3565b92915050565b5f5f604083850312156104235761042261033d565b5b5f610430858286016103f9565b9250506020610441858286016103f9565b9150509250929050565b610454816103da565b82525050565b5f60208201905061046d5f83018461044b565b92915050565b7f4e487b71000000000000000000000000000000000000000000000000000000005f52601160045260245ffd5b5f6104aa82610341565b91506104b583610341565b925082820390508181125f8412168282135f8512151617156104da576104d9610473565b5b92915050565b5f6104ea826103da565b91506104f5836103da565b925082820190508082111561050d5761050c610473565b5b92915050565b5f6060820190506105265f83018661044b565b610533602083018561044b565b610540604083018461044b565b949350505050565b5f82825260208201905092915050565b7f5468652064656e6f6d696e61746f722028276e756d325f2729206d75737420625f8201527f652067726561746572207468616e20302e000000000000000000000000000000602082015250565b5f6105b2603183610548565b91506105bd82610558565b604082019050919050565b5f6020820190508181035f8301526105df816105a6565b9050919050565b7f4e487b71000000000000000000000000000000000000000000000000000000005f52601260045260245ffd5b5f61061d826103da565b9150610628836103da565b925082610638576106376105e6565b5b828206905092915050565b7f5468652072656d696e646572206f6620746865206469766973696f6e206d75735f8201527f7420626520302e00000000000000000000000000000000000000000000000000602082015250565b5f61069d602783610548565b91506106a882610643565b604082019050919050565b5f6020820190508181035f8301526106ca81610691565b9050919050565b5f6106db826103da565b91506106e6836103da565b9250826106f6576106f56105e6565b5b828204905092915050565b7f546865206d756c7469706c69636174696f6e20697320657175616c20746f20305f8201527f2e00000000000000000000000000000000000000000000000000000000000000602082015250565b5f61075b602183610548565b915061076682610701565b604082019050919050565b5f6020820190508181035f8301526107888161074f565b9050919050565b5f610799826103da565b91506107a4836103da565b92508282026107b2816103da565b915082820484148315176107c9576107c8610473565b5b509291505056fea2646970667358221220b3e8822a57d480d1d91f6a5f6b3e3a26fe3c559a7bbdfe8d78d40925a09ee56a64736f6c634300081e0033",
			"opcodes": "PUSH1 0x80 PUSH1 0x40 MSTORE CALLVALUE DUP1 ISZERO PUSH1 0xE JUMPI PUSH0 PUSH0 REVERT JUMPDEST POP PUSH2 0x806 DUP1 PUSH2 0x1C PUSH0 CODECOPY PUSH0 RETURN INVALID PUSH1 0x80 PUSH1 0x40 MSTORE CALLVALUE DUP1 ISZERO PUSH2 0xF JUMPI PUSH0 PUSH0 REVERT JUMPDEST POP PUSH1 0x4 CALLDATASIZE LT PUSH2 0x4A JUMPI PUSH0 CALLDATALOAD PUSH1 0xE0 SHR DUP1 PUSH4 0x294BFB19 EQ PUSH2 0x4E JUMPI DUP1 PUSH4 0x54F363A3 EQ PUSH2 0x7E JUMPI DUP1 PUSH4 0xE0068052 EQ PUSH2 0xAE JUMPI DUP1 PUSH4 0xE941B9AC EQ PUSH2 0xDE JUMPI JUMPDEST PUSH0 PUSH0 REVERT JUMPDEST PUSH2 0x68 PUSH1 0x4 DUP1 CALLDATASIZE SUB DUP2 ADD SWAP1 PUSH2 0x63 SWAP2 SWAP1 PUSH2 0x374 JUMP JUMPDEST PUSH2 0x10E JUMP JUMPDEST PUSH1 0x40 MLOAD PUSH2 0x75 SWAP2 SWAP1 PUSH2 0x3C1 JUMP JUMPDEST PUSH1 0x40 MLOAD DUP1 SWAP2 SUB SWAP1 RETURN JUMPDEST PUSH2 0x98 PUSH1 0x4 DUP1 CALLDATASIZE SUB DUP2 ADD SWAP1 PUSH2 0x93 SWAP2 SWAP1 PUSH2 0x40D JUMP JUMPDEST PUSH2 0x121 JUMP JUMPDEST PUSH1 0x40 MLOAD PUSH2 0xA5 SWAP2 SWAP1 PUSH2 0x45A JUMP JUMPDEST PUSH1 0x40 MLOAD DUP1 SWAP2 SUB SWAP1 RETURN JUMPDEST PUSH2 0xC8 PUSH1 0x4 DUP1 CALLDATASIZE SUB DUP2 ADD SWAP1 PUSH2 0xC3 SWAP2 SWAP1 PUSH2 0x40D JUMP JUMPDEST PUSH2 0x134 JUMP JUMPDEST PUSH1 0x40 MLOAD PUSH2 0xD5 SWAP2 SWAP1 PUSH2 0x45A JUMP JUMPDEST PUSH1 0x40 MLOAD DUP1 SWAP2 SUB SWAP1 RETURN JUMPDEST PUSH2 0xF8 PUSH1 0x4 DUP1 CALLDATASIZE SUB DUP2 ADD SWAP1 PUSH2 0xF3 SWAP2 SWAP1 PUSH2 0x40D JUMP JUMPDEST PUSH2 0x147 JUMP JUMPDEST PUSH1 0x40 MLOAD PUSH2 0x105 SWAP2 SWAP1 PUSH2 0x45A JUMP JUMPDEST PUSH1 0x40 MLOAD DUP1 SWAP2 SUB SWAP1 RETURN JUMPDEST PUSH0 PUSH2 0x119 DUP4 DUP4 PUSH2 0x15A JUMP JUMPDEST SWAP1 POP SWAP3 SWAP2 POP POP JUMP JUMPDEST PUSH0 PUSH2 0x12C DUP4 DUP4 PUSH2 0x16F JUMP JUMPDEST SWAP1 POP SWAP3 SWAP2 POP POP JUMP JUMPDEST PUSH0 PUSH2 0x13F DUP4 DUP4 PUSH2 0x1C0 JUMP JUMPDEST SWAP1 POP SWAP3 SWAP2 POP POP JUMP JUMPDEST PUSH0 PUSH2 0x152 DUP4 DUP4 PUSH2 0x2A4 JUMP JUMPDEST SWAP1 POP SWAP3 SWAP2 POP POP JUMP JUMPDEST PUSH0 DUP2 DUP4 PUSH2 0x167 SWAP2 SWAP1 PUSH2 0x4A0 JUMP JUMPDEST SWAP1 POP SWAP3 SWAP2 POP POP JUMP JUMPDEST PUSH0 DUP2 DUP4 PUSH2 0x17C SWAP2 SWAP1 PUSH2 0x4E0 JUMP JUMPDEST SWAP1 POP PUSH32 0x99A8FD2A0841AFBE8000D711D763BF2C54B2C63BED7B7F92A244EF4F5154536 DUP4 DUP4 PUSH0 SLOAD PUSH1 0x40 MLOAD PUSH2 0x1B2 SWAP4 SWAP3 SWAP2 SWAP1 PUSH2 0x513 JUMP JUMPDEST PUSH1 0x40 MLOAD DUP1 SWAP2 SUB SWAP1 LOG1 SWAP3 SWAP2 POP POP JUMP JUMPDEST PUSH0 DUP3 DUP3 PUSH0 DUP2 GT PUSH2 0x205 JUMPI PUSH1 0x40 MLOAD PUSH32 0x8C379A000000000000000000000000000000000000000000000000000000000 DUP2 MSTORE PUSH1 0x4 ADD PUSH2 0x1FC SWAP1 PUSH2 0x5C8 JUMP JUMPDEST PUSH1 0x40 MLOAD DUP1 SWAP2 SUB SWAP1 REVERT JUMPDEST PUSH0 DUP2 DUP4 PUSH2 0x212 SWAP2 SWAP1 PUSH2 0x613 JUMP JUMPDEST EQ PUSH2 0x252 JUMPI PUSH1 0x40 MLOAD PUSH32 0x8C379A000000000000000000000000000000000000000000000000000000000 DUP2 MSTORE PUSH1 0x4 ADD PUSH2 0x249 SWAP1 PUSH2 0x6B3 JUMP JUMPDEST PUSH1 0x40 MLOAD DUP1 SWAP2 SUB SWAP1 REVERT JUMPDEST DUP4 DUP6 PUSH2 0x25E SWAP2 SWAP1 PUSH2 0x6D1 JUMP JUMPDEST SWAP3 POP PUSH32 0xD8EF84F712E41D28F98FE74CD153013023D849514D0A40EE61834F3C385055CE DUP6 DUP6 PUSH0 SLOAD PUSH1 0x40 MLOAD PUSH2 0x294 SWAP4 SWAP3 SWAP2 SWAP1 PUSH2 0x513 JUMP JUMPDEST PUSH1 0x40 MLOAD DUP1 SWAP2 SUB SWAP1 LOG1 POP POP SWAP3 SWAP2 POP POP JUMP JUMPDEST PUSH0 DUP3 DUP3 PUSH0 DUP2 DUP4 AND GT PUSH2 0x2EB JUMPI PUSH1 0x40 MLOAD PUSH32 0x8C379A000000000000000000000000000000000000000000000000000000000 DUP2 MSTORE PUSH1 0x4 ADD PUSH2 0x2E2 SWAP1 PUSH2 0x771 JUMP JUMPDEST PUSH1 0x40 MLOAD DUP1 SWAP2 SUB SWAP1 REVERT JUMPDEST DUP4 DUP6 PUSH2 0x2F7 SWAP2 SWAP1 PUSH2 0x78F JUMP JUMPDEST SWAP3 POP PUSH32 0x4C5195CD17C9C557223B5A741A5F96B558165F1F189E790B0B6B91A4724B0E47 DUP6 DUP6 PUSH0 SLOAD PUSH1 0x40 MLOAD PUSH2 0x32D SWAP4 SWAP3 SWAP2 SWAP1 PUSH2 0x513 JUMP JUMPDEST PUSH1 0x40 MLOAD DUP1 SWAP2 SUB SWAP1 LOG1 POP POP SWAP3 SWAP2 POP POP JUMP JUMPDEST PUSH0 PUSH0 REVERT JUMPDEST PUSH0 DUP2 SWAP1 POP SWAP2 SWAP1 POP JUMP JUMPDEST PUSH2 0x353 DUP2 PUSH2 0x341 JUMP JUMPDEST DUP2 EQ PUSH2 0x35D JUMPI PUSH0 PUSH0 REVERT JUMPDEST POP JUMP JUMPDEST PUSH0 DUP2 CALLDATALOAD SWAP1 POP PUSH2 0x36E DUP2 PUSH2 0x34A JUMP JUMPDEST SWAP3 SWAP2 POP POP JUMP JUMPDEST PUSH0 PUSH0 PUSH1 0x40 DUP4 DUP6 SUB SLT ISZERO PUSH2 0x38A JUMPI PUSH2 0x389 PUSH2 0x33D JUMP JUMPDEST JUMPDEST PUSH0 PUSH2 0x397 DUP6 DUP3 DUP7 ADD PUSH2 0x360 JUMP JUMPDEST SWAP3 POP POP PUSH1 0x20 PUSH2 0x3A8 DUP6 DUP3 DUP7 ADD PUSH2 0x360 JUMP JUMPDEST SWAP2 POP POP SWAP3 POP SWAP3 SWAP1 POP JUMP JUMPDEST PUSH2 0x3BB DUP2 PUSH2 0x341 JUMP JUMPDEST DUP3 MSTORE POP POP JUMP JUMPDEST PUSH0 PUSH1 0x20 DUP3 ADD SWAP1 POP PUSH2 0x3D4 PUSH0 DUP4 ADD DUP5 PUSH2 0x3B2 JUMP JUMPDEST SWAP3 SWAP2 POP POP JUMP JUMPDEST PUSH0 DUP2 SWAP1 POP SWAP2 SWAP1 POP JUMP JUMPDEST PUSH2 0x3EC DUP2 PUSH2 0x3DA JUMP JUMPDEST DUP2 EQ PUSH2 0x3F6 JUMPI PUSH0 PUSH0 REVERT JUMPDEST POP JUMP JUMPDEST PUSH0 DUP2 CALLDATALOAD SWAP1 POP PUSH2 0x407 DUP2 PUSH2 0x3E3 JUMP JUMPDEST SWAP3 SWAP2 POP POP JUMP JUMPDEST PUSH0 PUSH0 PUSH1 0x40 DUP4 DUP6 SUB SLT ISZERO PUSH2 0x423 JUMPI PUSH2 0x422 PUSH2 0x33D JUMP JUMPDEST JUMPDEST PUSH0 PUSH2 0x430 DUP6 DUP3 DUP7 ADD PUSH2 0x3F9 JUMP JUMPDEST SWAP3 POP POP PUSH1 0x20 PUSH2 0x441 DUP6 DUP3 DUP7 ADD PUSH2 0x3F9 JUMP JUMPDEST SWAP2 POP POP SWAP3 POP SWAP3 SWAP1 POP JUMP JUMPDEST PUSH2 0x454 DUP2 PUSH2 0x3DA JUMP JUMPDEST DUP3 MSTORE POP POP JUMP JUMPDEST PUSH0 PUSH1 0x20 DUP3 ADD SWAP1 POP PUSH2 0x46D PUSH0 DUP4 ADD DUP5 PUSH2 0x44B JUMP JUMPDEST SWAP3 SWAP2 POP POP JUMP JUMPDEST PUSH32 0x4E487B7100000000000000000000000000000000000000000000000000000000 PUSH0 MSTORE PUSH1 0x11 PUSH1 0x4 MSTORE PUSH1 0x24 PUSH0 REVERT JUMPDEST PUSH0 PUSH2 0x4AA DUP3 PUSH2 0x341 JUMP JUMPDEST SWAP2 POP PUSH2 0x4B5 DUP4 PUSH2 0x341 JUMP JUMPDEST SWAP3 POP DUP3 DUP3 SUB SWAP1 POP DUP2 DUP2 SLT PUSH0 DUP5 SLT AND DUP3 DUP3 SGT PUSH0 DUP6 SLT ISZERO AND OR ISZERO PUSH2 0x4DA JUMPI PUSH2 0x4D9 PUSH2 0x473 JUMP JUMPDEST JUMPDEST SWAP3 SWAP2 POP POP JUMP JUMPDEST PUSH0 PUSH2 0x4EA DUP3 PUSH2 0x3DA JUMP JUMPDEST SWAP2 POP PUSH2 0x4F5 DUP4 PUSH2 0x3DA JUMP JUMPDEST SWAP3 POP DUP3 DUP3 ADD SWAP1 POP DUP1 DUP3 GT ISZERO PUSH2 0x50D JUMPI PUSH2 0x50C PUSH2 0x473 JUMP JUMPDEST JUMPDEST SWAP3 SWAP2 POP POP JUMP JUMPDEST PUSH0 PUSH1 0x60 DUP3 ADD SWAP1 POP PUSH2 0x526 PUSH0 DUP4 ADD DUP7 PUSH2 0x44B JUMP JUMPDEST PUSH2 0x533 PUSH1 0x20 DUP4 ADD DUP6 PUSH2 0x44B JUMP JUMPDEST PUSH2 0x540 PUSH1 0x40 DUP4 ADD DUP5 PUSH2 0x44B JUMP JUMPDEST SWAP5 SWAP4 POP POP POP POP JUMP JUMPDEST PUSH0 DUP3 DUP3 MSTORE PUSH1 0x20 DUP3 ADD SWAP1 POP SWAP3 SWAP2 POP POP JUMP JUMPDEST PUSH32 0x5468652064656E6F6D696E61746F722028276E756D325F2729206D7573742062 PUSH0 DUP3 ADD MSTORE PUSH32 0x652067726561746572207468616E20302E000000000000000000000000000000 PUSH1 0x20 DUP3 ADD MSTORE POP JUMP JUMPDEST PUSH0 PUSH2 0x5B2 PUSH1 0x31 DUP4 PUSH2 0x548 JUMP JUMPDEST SWAP2 POP PUSH2 0x5BD DUP3 PUSH2 0x558 JUMP JUMPDEST PUSH1 0x40 DUP3 ADD SWAP1 POP SWAP2 SWAP1 POP JUMP JUMPDEST PUSH0 PUSH1 0x20 DUP3 ADD SWAP1 POP DUP2 DUP2 SUB PUSH0 DUP4 ADD MSTORE PUSH2 0x5DF DUP2 PUSH2 0x5A6 JUMP JUMPDEST SWAP1 POP SWAP2 SWAP1 POP JUMP JUMPDEST PUSH32 0x4E487B7100000000000000000000000000000000000000000000000000000000 PUSH0 MSTORE PUSH1 0x12 PUSH1 0x4 MSTORE PUSH1 0x24 PUSH0 REVERT JUMPDEST PUSH0 PUSH2 0x61D DUP3 PUSH2 0x3DA JUMP JUMPDEST SWAP2 POP PUSH2 0x628 DUP4 PUSH2 0x3DA JUMP JUMPDEST SWAP3 POP DUP3 PUSH2 0x638 JUMPI PUSH2 0x637 PUSH2 0x5E6 JUMP JUMPDEST JUMPDEST DUP3 DUP3 MOD SWAP1 POP SWAP3 SWAP2 POP POP JUMP JUMPDEST PUSH32 0x5468652072656D696E646572206F6620746865206469766973696F6E206D7573 PUSH0 DUP3 ADD MSTORE PUSH32 0x7420626520302E00000000000000000000000000000000000000000000000000 PUSH1 0x20 DUP3 ADD MSTORE POP JUMP JUMPDEST PUSH0 PUSH2 0x69D PUSH1 0x27 DUP4 PUSH2 0x548 JUMP JUMPDEST SWAP2 POP PUSH2 0x6A8 DUP3 PUSH2 0x643 JUMP JUMPDEST PUSH1 0x40 DUP3 ADD SWAP1 POP SWAP2 SWAP1 POP JUMP JUMPDEST PUSH0 PUSH1 0x20 DUP3 ADD SWAP1 POP DUP2 DUP2 SUB PUSH0 DUP4 ADD MSTORE PUSH2 0x6CA DUP2 PUSH2 0x691 JUMP JUMPDEST SWAP1 POP SWAP2 SWAP1 POP JUMP JUMPDEST PUSH0 PUSH2 0x6DB DUP3 PUSH2 0x3DA JUMP JUMPDEST SWAP2 POP PUSH2 0x6E6 DUP4 PUSH2 0x3DA JUMP JUMPDEST SWAP3 POP DUP3 PUSH2 0x6F6 JUMPI PUSH2 0x6F5 PUSH2 0x5E6 JUMP JUMPDEST JUMPDEST DUP3 DUP3 DIV SWAP1 POP SWAP3 SWAP2 POP POP JUMP JUMPDEST PUSH32 0x546865206D756C7469706C69636174696F6E20697320657175616C20746F2030 PUSH0 DUP3 ADD MSTORE PUSH32 0x2E00000000000000000000000000000000000000000000000000000000000000 PUSH1 0x20 DUP3 ADD MSTORE POP JUMP JUMPDEST PUSH0 PUSH2 0x75B PUSH1 0x21 DUP4 PUSH2 0x548 JUMP JUMPDEST SWAP2 POP PUSH2 0x766 DUP3 PUSH2 0x701 JUMP JUMPDEST PUSH1 0x40 DUP3 ADD SWAP1 POP SWAP2 SWAP1 POP JUMP JUMPDEST PUSH0 PUSH1 0x20 DUP3 ADD SWAP1 POP DUP2 DUP2 SUB PUSH0 DUP4 ADD MSTORE PUSH2 0x788 DUP2 PUSH2 0x74F JUMP JUMPDEST SWAP1 POP SWAP2 SWAP1 POP JUMP JUMPDEST PUSH0 PUSH2 0x799 DUP3 PUSH2 0x3DA JUMP JUMPDEST SWAP2 POP PUSH2 0x7A4 DUP4 PUSH2 0x3DA JUMP JUMPDEST SWAP3 POP DUP3 DUP3 MUL PUSH2 0x7B2 DUP2 PUSH2 0x3DA JUMP JUMPDEST SWAP2 POP DUP3 DUP3 DIV DUP5 EQ DUP4 ISZERO OR PUSH2 0x7C9 JUMPI PUSH2 0x7C8 PUSH2 0x473 JUMP JUMPDEST JUMPDEST POP SWAP3 SWAP2 POP POP JUMP INVALID LOG2 PUSH5 0x6970667358 0x22 SLT KECCAK256 0xB3 0xE8 DUP3 0x2A JUMPI 0xD4 DUP1 DATALOADN 0xD91F PUSH11 0x5F6B3E3A26FE3C559A7BBD INVALID DUP14 PUSH25 0xD40925A09EE56A64736F6C634300081E003300000000000000 "
		},
		"gasEstimates": {
			"creation": {
				"codeDepositCost": "410800",
				"executionCost": "447",
				"totalCost": "411247"
			},
			"external": {
				"addition(uint256,uint256)": "infinite",
				"division(uint256,uint256)": "infinite",
				"multiplier(uint256,uint256)": "infinite",
				"substraction(int256,int256)": "infinite"
			},
			"internal": {
				"addition_logic(uint256,uint256)": "infinite",
				"division_logic(uint256,uint256)": "infinite",
				"multiplier_logic(uint256,uint256)": "infinite",
				"substraction_logic(int256,int256)": "infinite"
			}
		},
		"methodIdentifiers": {
			"addition(uint256,uint256)": "54f363a3",
			"division(uint256,uint256)": "e0068052",
			"multiplier(uint256,uint256)": "e941b9ac",
			"substraction(int256,int256)": "294bfb19"
		}
	},
	"abi": [
		{
			"anonymous": false,
			"inputs": [
				{
					"indexed": false,
					"internalType": "uint256",
					"name": "number1",
					"type": "uint256"
				},
				{
					"indexed": false,
					"internalType": "uint256",
					"name": "number2",
					"type": "uint256"
				},
				{
					"indexed": false,
					"internalType": "uint256",
					"name": "result",
					"type": "uint256"
				}
			],
			"name": "Addition",
			"type": "event"
		},
		{
			"anonymous": false,
			"inputs": [
				{
					"indexed": false,
					"internalType": "uint256",
					"name": "number1",
					"type": "uint256"
				},
				{
					"indexed": false,
					"internalType": "uint256",
					"name": "number2",
					"type": "uint256"
				},
				{
					"indexed": false,
					"internalType": "uint256",
					"name": "result",
					"type": "uint256"
				}
			],
			"name": "Division",
			"type": "event"
		},
		{
			"anonymous": false,
			"inputs": [
				{
					"indexed": false,
					"internalType": "uint256",
					"name": "number1",
					"type": "uint256"
				},
				{
					"indexed": false,
					"internalType": "uint256",
					"name": "number2",
					"type": "uint256"
				},
				{
					"indexed": false,
					"internalType": "uint256",
					"name": "result",
					"type": "uint256"
				}
			],
			"name": "Multiplier",
			"type": "event"
		},
		{
			"anonymous": false,
			"inputs": [
				{
					"indexed": false,
					"internalType": "int256",
					"name": "number1",
					"type": "int256"
				},
				{
					"indexed": false,
					"internalType": "int256",
					"name": "number2",
					"type": "int256"
				},
				{
					"indexed": false,
					"internalType": "int256",
					"name": "result",
					"type": "int256"
				}
			],
			"name": "Substraction",
			"type": "event"
		},
		{
			"inputs": [
				{
					"internalType": "uint256",
					"name": "num1_",
					"type": "uint256"
				},
				{
					"internalType": "uint256",
					"name": "num2_",
					"type": "uint256"
				}
			],
			"name": "addition",
			"outputs": [
				{
					"internalType": "uint256",
					"name": "result_",
					"type": "uint256"
				}
			],
			"stateMutability": "nonpayable",
			"type": "function"
		},
		{
			"inputs": [
				{
					"internalType": "uint256",
					"name": "num1_",
					"type": "uint256"
				},
				{
					"internalType": "uint256",
					"name": "num2_",
					"type": "uint256"
				}
			],
			"name": "division",
			"outputs": [
				{
					"internalType": "uint256",
					"name": "result_",
					"type": "uint256"
				}
			],
			"stateMutability": "nonpayable",
			"type": "function"
		},
		{
			"inputs": [
				{
					"internalType": "uint256",
					"name": "num1_",
					"type": "uint256"
				},
				{
					"internalType": "uint256",
					"name": "num2_",
					"type": "uint256"
				}
			],
			"name": "multiplier",
			"outputs": [
				{
					"internalType": "uint256",
					"name": "result_",
					"type": "uint256"
				}
			],
			"stateMutability": "nonpayable",
			"type": "function"
		},
		{
			"inputs": [
				{
					"internalType": "int256",
					"name": "num1_",
					"type": "int256"
				},
				{
					"internalType": "int256",
					"name": "num2_",
					"type": "int256"
				}
			],
			"name": "substraction",
			"outputs": [
				{
					"internalType": "int256",
					"name": "result_",
					"type": "int256"
				}
			],
			"stateMutability": "pure",
			"type": "function"
		}
	]
}